{"abi":[{"inputs":[{"internalType":"uint256","name":"minimum","type":"uint256"},{"internalType":"address","name":"creator","type":"address"}],"stateMutability":"nonpayable","type":"constructor"},{"inputs":[{"internalType":"uint256","name":"index","type":"uint256"}],"name":"approveRequest","outputs":[],"stateMutability":"nonpayable","type":"function"},{"inputs":[{"internalType":"address","name":"","type":"address"}],"name":"approvers","outputs":[{"internalType":"bool","name":"","type":"bool"}],"stateMutability":"view","type":"function"},{"inputs":[],"name":"approversCount","outputs":[{"internalType":"uint256","name":"","type":"uint256"}],"stateMutability":"view","type":"function"},{"inputs":[],"name":"contribute","outputs":[],"stateMutability":"payable","type":"function"},{"inputs":[{"internalType":"string","name":"description","type":"string"},{"internalType":"uint256","name":"value","type":"uint256"},{"internalType":"address payable","name":"recipient","type":"address"}],"name":"createRequest","outputs":[],"stateMutability":"nonpayable","type":"function"},{"inputs":[{"internalType":"uint256","name":"index","type":"uint256"}],"name":"finalizeRequest","outputs":[],"stateMutability":"payable","type":"function"},{"inputs":[],"name":"manager","outputs":[{"internalType":"address","name":"","type":"address"}],"stateMutability":"view","type":"function"},{"inputs":[],"name":"minimumContribution","outputs":[{"internalType":"uint256","name":"","type":"uint256"}],"stateMutability":"view","type":"function"},{"inputs":[{"internalType":"uint256","name":"","type":"uint256"}],"name":"requests","outputs":[{"internalType":"string","name":"description","type":"string"},{"internalType":"uint256","name":"value","type":"uint256"},{"internalType":"address payable","name":"recipient","type":"address"},{"internalType":"bool","name":"complete","type":"bool"},{"internalType":"uint256","name":"approvalCount","type":"uint256"}],"stateMutability":"view","type":"function"}],"devdoc":{"kind":"dev","methods":{},"version":1},"evm":{"assembly":"    /* \"Campaign.sol\":422:2206  contract Campaign {... */\n  mstore(0x40, 0x80)\n    /* \"Campaign.sol\":914:1030  constructor(uint minimum, address creator) {... */\n  callvalue\n  dup1\n  iszero\n  tag_1\n  jumpi\n  0x00\n  dup1\n  revert\ntag_1:\n  pop\n  mload(0x40)\n  sub(codesize, bytecodeSize)\n  dup1\n  bytecodeSize\n  dup4\n  codecopy\n  dup2\n  dup2\n  add\n  0x40\n  mstore\n  dup2\n  add\n  swap1\n  tag_2\n  swap2\n  swap1\n  tag_3\n  jump\t// in\ntag_2:\n    /* \"Campaign.sol\":977:984  creator */\n  dup1\n    /* \"Campaign.sol\":967:974  manager */\n  0x01\n  0x00\n    /* \"Campaign.sol\":967:984  manager = creator */\n  0x0100\n  exp\n  dup2\n  sload\n  dup2\n  0xffffffffffffffffffffffffffffffffffffffff\n  mul\n  not\n  and\n  swap1\n  dup4\n  0xffffffffffffffffffffffffffffffffffffffff\n  and\n  mul\n  or\n  swap1\n  sstore\n  pop\n    /* \"Campaign.sol\":1016:1023  minimum */\n  dup2\n    /* \"Campaign.sol\":994:1013  minimumContribution */\n  0x02\n    /* \"Campaign.sol\":994:1023  minimumContribution = minimum */\n  dup2\n  swap1\n  sstore\n  pop\n    /* \"Campaign.sol\":914:1030  constructor(uint minimum, address creator) {... */\n  pop\n  pop\n    /* \"Campaign.sol\":422:2206  contract Campaign {... */\n  jump(tag_6)\n    /* \"#utility.yul\":88:205   */\ntag_8:\n    /* \"#utility.yul\":197:198   */\n  0x00\n    /* \"#utility.yul\":194:195   */\n  dup1\n    /* \"#utility.yul\":187:199   */\n  revert\n    /* \"#utility.yul\":334:411   */\ntag_10:\n    /* \"#utility.yul\":371:378   */\n  0x00\n    /* \"#utility.yul\":400:405   */\n  dup2\n    /* \"#utility.yul\":389:405   */\n  swap1\n  pop\n    /* \"#utility.yul\":334:411   */\n  swap2\n  swap1\n  pop\n  jump\t// out\n    /* \"#utility.yul\":417:539   */\ntag_11:\n    /* \"#utility.yul\":490:514   */\n  tag_23\n    /* \"#utility.yul\":508:513   */\n  dup2\n    /* \"#utility.yul\":490:514   */\n  tag_10\n  jump\t// in\ntag_23:\n    /* \"#utility.yul\":483:488   */\n  dup2\n    /* \"#utility.yul\":480:515   */\n  eq\n    /* \"#utility.yul\":470:533   */\n  tag_24\n  jumpi\n    /* \"#utility.yul\":529:530   */\n  0x00\n    /* \"#utility.yul\":526:527   */\n  dup1\n    /* \"#utility.yul\":519:531   */\n  revert\n    /* \"#utility.yul\":470:533   */\ntag_24:\n    /* \"#utility.yul\":417:539   */\n  pop\n  jump\t// out\n    /* \"#utility.yul\":545:688   */\ntag_12:\n    /* \"#utility.yul\":602:607   */\n  0x00\n    /* \"#utility.yul\":633:639   */\n  dup2\n    /* \"#utility.yul\":627:640   */\n  mload\n    /* \"#utility.yul\":618:640   */\n  swap1\n  pop\n    /* \"#utility.yul\":649:682   */\n  tag_26\n    /* \"#utility.yul\":676:681   */\n  dup2\n    /* \"#utility.yul\":649:682   */\n  tag_11\n  jump\t// in\ntag_26:\n    /* \"#utility.yul\":545:688   */\n  swap3\n  swap2\n  pop\n  pop\n  jump\t// out\n    /* \"#utility.yul\":694:820   */\ntag_13:\n    /* \"#utility.yul\":731:738   */\n  0x00\n    /* \"#utility.yul\":771:813   */\n  0xffffffffffffffffffffffffffffffffffffffff\n    /* \"#utility.yul\":764:769   */\n  dup3\n    /* \"#utility.yul\":760:814   */\n  and\n    /* \"#utility.yul\":749:814   */\n  swap1\n  pop\n    /* \"#utility.yul\":694:820   */\n  swap2\n  swap1\n  pop\n  jump\t// out\n    /* \"#utility.yul\":826:922   */\ntag_14:\n    /* \"#utility.yul\":863:870   */\n  0x00\n    /* \"#utility.yul\":892:916   */\n  tag_29\n    /* \"#utility.yul\":910:915   */\n  dup3\n    /* \"#utility.yul\":892:916   */\n  tag_13\n  jump\t// in\ntag_29:\n    /* \"#utility.yul\":881:916   */\n  swap1\n  pop\n    /* \"#utility.yul\":826:922   */\n  swap2\n  swap1\n  pop\n  jump\t// out\n    /* \"#utility.yul\":928:1050   */\ntag_15:\n    /* \"#utility.yul\":1001:1025   */\n  tag_31\n    /* \"#utility.yul\":1019:1024   */\n  dup2\n    /* \"#utility.yul\":1001:1025   */\n  tag_14\n  jump\t// in\ntag_31:\n    /* \"#utility.yul\":994:999   */\n  dup2\n    /* \"#utility.yul\":991:1026   */\n  eq\n    /* \"#utility.yul\":981:1044   */\n  tag_32\n  jumpi\n    /* \"#utility.yul\":1040:1041   */\n  0x00\n    /* \"#utility.yul\":1037:1038   */\n  dup1\n    /* \"#utility.yul\":1030:1042   */\n  revert\n    /* \"#utility.yul\":981:1044   */\ntag_32:\n    /* \"#utility.yul\":928:1050   */\n  pop\n  jump\t// out\n    /* \"#utility.yul\":1056:1199   */\ntag_16:\n    /* \"#utility.yul\":1113:1118   */\n  0x00\n    /* \"#utility.yul\":1144:1150   */\n  dup2\n    /* \"#utility.yul\":1138:1151   */\n  mload\n    /* \"#utility.yul\":1129:1151   */\n  swap1\n  pop\n    /* \"#utility.yul\":1160:1193   */\n  tag_34\n    /* \"#utility.yul\":1187:1192   */\n  dup2\n    /* \"#utility.yul\":1160:1193   */\n  tag_15\n  jump\t// in\ntag_34:\n    /* \"#utility.yul\":1056:1199   */\n  swap3\n  swap2\n  pop\n  pop\n  jump\t// out\n    /* \"#utility.yul\":1205:1712   */\ntag_3:\n    /* \"#utility.yul\":1284:1290   */\n  0x00\n    /* \"#utility.yul\":1292:1298   */\n  dup1\n    /* \"#utility.yul\":1341:1343   */\n  0x40\n    /* \"#utility.yul\":1329:1338   */\n  dup4\n    /* \"#utility.yul\":1320:1327   */\n  dup6\n    /* \"#utility.yul\":1316:1339   */\n  sub\n    /* \"#utility.yul\":1312:1344   */\n  slt\n    /* \"#utility.yul\":1309:1428   */\n  iszero\n  tag_36\n  jumpi\n    /* \"#utility.yul\":1347:1426   */\n  tag_37\n  tag_8\n  jump\t// in\ntag_37:\n    /* \"#utility.yul\":1309:1428   */\ntag_36:\n    /* \"#utility.yul\":1467:1468   */\n  0x00\n    /* \"#utility.yul\":1492:1556   */\n  tag_38\n    /* \"#utility.yul\":1548:1555   */\n  dup6\n    /* \"#utility.yul\":1539:1545   */\n  dup3\n    /* \"#utility.yul\":1528:1537   */\n  dup7\n    /* \"#utility.yul\":1524:1546   */\n  add\n    /* \"#utility.yul\":1492:1556   */\n  tag_12\n  jump\t// in\ntag_38:\n    /* \"#utility.yul\":1482:1556   */\n  swap3\n  pop\n    /* \"#utility.yul\":1438:1566   */\n  pop\n    /* \"#utility.yul\":1605:1607   */\n  0x20\n    /* \"#utility.yul\":1631:1695   */\n  tag_39\n    /* \"#utility.yul\":1687:1694   */\n  dup6\n    /* \"#utility.yul\":1678:1684   */\n  dup3\n    /* \"#utility.yul\":1667:1676   */\n  dup7\n    /* \"#utility.yul\":1663:1685   */\n  add\n    /* \"#utility.yul\":1631:1695   */\n  tag_16\n  jump\t// in\ntag_39:\n    /* \"#utility.yul\":1621:1695   */\n  swap2\n  pop\n    /* \"#utility.yul\":1576:1705   */\n  pop\n    /* \"#utility.yul\":1205:1712   */\n  swap3\n  pop\n  swap3\n  swap1\n  pop\n  jump\t// out\n    /* \"Campaign.sol\":422:2206  contract Campaign {... */\ntag_6:\n  dataSize(sub_0)\n  dup1\n  dataOffset(sub_0)\n  0x00\n  codecopy\n  0x00\n  return\nstop\n\nsub_0: assembly {\n        /* \"Campaign.sol\":422:2206  contract Campaign {... */\n      mstore(0x40, 0x80)\n      jumpi(tag_1, lt(calldatasize, 0x04))\n      shr(0xe0, calldataload(0x00))\n      dup1\n      0x82fde093\n      gt\n      tag_11\n      jumpi\n      dup1\n      0x82fde093\n      eq\n      tag_6\n      jumpi\n      dup1\n      0x8a9cfd55\n      eq\n      tag_7\n      jumpi\n      dup1\n      0x937e09b1\n      eq\n      tag_8\n      jumpi\n      dup1\n      0xd7bb99ba\n      eq\n      tag_9\n      jumpi\n      dup1\n      0xd7d1bbdb\n      eq\n      tag_10\n      jumpi\n      jump(tag_1)\n    tag_11:\n      dup1\n      0x03441006\n      eq\n      tag_2\n      jumpi\n      dup1\n      0x0a144391\n      eq\n      tag_3\n      jumpi\n      dup1\n      0x481c6a75\n      eq\n      tag_4\n      jumpi\n      dup1\n      0x81d12c58\n      eq\n      tag_5\n      jumpi\n    tag_1:\n      0x00\n      dup1\n      revert\n        /* \"Campaign.sol\":1895:2204  function finalizeRequest(uint index) public payable restricted {... */\n    tag_2:\n      tag_12\n      0x04\n      dup1\n      calldatasize\n      sub\n      dup2\n      add\n      swap1\n      tag_13\n      swap2\n      swap1\n      tag_14\n      jump\t// in\n    tag_13:\n      tag_15\n      jump\t// in\n    tag_12:\n      stop\n        /* \"Campaign.sol\":748:789  mapping(address => bool) public approvers */\n    tag_3:\n      callvalue\n      dup1\n      iszero\n      tag_16\n      jumpi\n      0x00\n      dup1\n      revert\n    tag_16:\n      pop\n      tag_17\n      0x04\n      dup1\n      calldatasize\n      sub\n      dup2\n      add\n      swap1\n      tag_18\n      swap2\n      swap1\n      tag_19\n      jump\t// in\n    tag_18:\n      tag_20\n      jump\t// in\n    tag_17:\n      mload(0x40)\n      tag_21\n      swap2\n      swap1\n      tag_22\n      jump\t// in\n    tag_21:\n      mload(0x40)\n      dup1\n      swap2\n      sub\n      swap1\n      return\n        /* \"Campaign.sol\":683:705  address public manager */\n    tag_4:\n      callvalue\n      dup1\n      iszero\n      tag_23\n      jumpi\n      0x00\n      dup1\n      revert\n    tag_23:\n      pop\n      tag_24\n      tag_25\n      jump\t// in\n    tag_24:\n      mload(0x40)\n      tag_26\n      swap2\n      swap1\n      tag_27\n      jump\t// in\n    tag_26:\n      mload(0x40)\n      dup1\n      swap2\n      sub\n      swap1\n      return\n        /* \"Campaign.sol\":652:677  Request[] public requests */\n    tag_5:\n      callvalue\n      dup1\n      iszero\n      tag_28\n      jumpi\n      0x00\n      dup1\n      revert\n    tag_28:\n      pop\n      tag_29\n      0x04\n      dup1\n      calldatasize\n      sub\n      dup2\n      add\n      swap1\n      tag_30\n      swap2\n      swap1\n      tag_14\n      jump\t// in\n    tag_30:\n      tag_31\n      jump\t// in\n    tag_29:\n      mload(0x40)\n      tag_32\n      swap6\n      swap5\n      swap4\n      swap3\n      swap2\n      swap1\n      tag_33\n      jump\t// in\n    tag_32:\n      mload(0x40)\n      dup1\n      swap2\n      sub\n      swap1\n      return\n        /* \"Campaign.sol\":795:821  uint public approversCount */\n    tag_6:\n      callvalue\n      dup1\n      iszero\n      tag_34\n      jumpi\n      0x00\n      dup1\n      revert\n    tag_34:\n      pop\n      tag_35\n      tag_36\n      jump\t// in\n    tag_35:\n      mload(0x40)\n      tag_37\n      swap2\n      swap1\n      tag_38\n      jump\t// in\n    tag_37:\n      mload(0x40)\n      dup1\n      swap2\n      sub\n      swap1\n      return\n        /* \"Campaign.sol\":1202:1568  function createRequest(string memory description, uint value, address payable recipient) public restricted {... */\n    tag_7:\n      callvalue\n      dup1\n      iszero\n      tag_39\n      jumpi\n      0x00\n      dup1\n      revert\n    tag_39:\n      pop\n      tag_40\n      0x04\n      dup1\n      calldatasize\n      sub\n      dup2\n      add\n      swap1\n      tag_41\n      swap2\n      swap1\n      tag_42\n      jump\t// in\n    tag_41:\n      tag_43\n      jump\t// in\n    tag_40:\n      stop\n        /* \"Campaign.sol\":711:742  uint public minimumContribution */\n    tag_8:\n      callvalue\n      dup1\n      iszero\n      tag_44\n      jumpi\n      0x00\n      dup1\n      revert\n    tag_44:\n      pop\n      tag_45\n      tag_46\n      jump\t// in\n    tag_45:\n      mload(0x40)\n      tag_47\n      swap2\n      swap1\n      tag_38\n      jump\t// in\n    tag_47:\n      mload(0x40)\n      dup1\n      swap2\n      sub\n      swap1\n      return\n        /* \"Campaign.sol\":1036:1196  function contribute() public payable {... */\n    tag_9:\n      tag_48\n      tag_49\n      jump\t// in\n    tag_48:\n      stop\n        /* \"Campaign.sol\":1574:1889  function approveRequest(uint index) public {... */\n    tag_10:\n      callvalue\n      dup1\n      iszero\n      tag_50\n      jumpi\n      0x00\n      dup1\n      revert\n    tag_50:\n      pop\n      tag_51\n      0x04\n      dup1\n      calldatasize\n      sub\n      dup2\n      add\n      swap1\n      tag_52\n      swap2\n      swap1\n      tag_14\n      jump\t// in\n    tag_52:\n      tag_53\n      jump\t// in\n    tag_51:\n      stop\n        /* \"Campaign.sol\":1895:2204  function finalizeRequest(uint index) public payable restricted {... */\n    tag_15:\n        /* \"Campaign.sol\":882:889  manager */\n      0x01\n      0x00\n      swap1\n      sload\n      swap1\n      0x0100\n      exp\n      swap1\n      div\n      0xffffffffffffffffffffffffffffffffffffffff\n      and\n        /* \"Campaign.sol\":868:889  msg.sender == manager */\n      0xffffffffffffffffffffffffffffffffffffffff\n      and\n        /* \"Campaign.sol\":868:878  msg.sender */\n      caller\n        /* \"Campaign.sol\":868:889  msg.sender == manager */\n      0xffffffffffffffffffffffffffffffffffffffff\n      and\n      eq\n        /* \"Campaign.sol\":860:890  require(msg.sender == manager) */\n      tag_55\n      jumpi\n      0x00\n      dup1\n      revert\n    tag_55:\n        /* \"Campaign.sol\":1968:1991  Request storage request */\n      0x00\n        /* \"Campaign.sol\":1994:2002  requests */\n      dup1\n        /* \"Campaign.sol\":2003:2008  index */\n      dup3\n        /* \"Campaign.sol\":1994:2009  requests[index] */\n      dup2\n      sload\n      dup2\n      lt\n      tag_57\n      jumpi\n      tag_58\n      tag_59\n      jump\t// in\n    tag_58:\n    tag_57:\n      swap1\n      0x00\n      mstore\n      keccak256(0x00, 0x20)\n      swap1\n      0x05\n      mul\n      add\n        /* \"Campaign.sol\":1968:2009  Request storage request = requests[index] */\n      swap1\n      pop\n        /* \"Campaign.sol\":2029:2036  request */\n      dup1\n        /* \"Campaign.sol\":2029:2045  request.complete */\n      0x02\n      add\n      0x14\n      swap1\n      sload\n      swap1\n      0x0100\n      exp\n      swap1\n      div\n      0xff\n      and\n        /* \"Campaign.sol\":2028:2045  !request.complete */\n      iszero\n        /* \"Campaign.sol\":2020:2046  require(!request.complete) */\n      tag_61\n      jumpi\n      0x00\n      dup1\n      revert\n    tag_61:\n        /* \"Campaign.sol\":2109:2111  10 */\n      0x0a\n        /* \"Campaign.sol\":2106:2107  7 */\n      0x07\n        /* \"Campaign.sol\":2089:2103  approversCount */\n      sload(0x04)\n        /* \"Campaign.sol\":2089:2107  approversCount * 7 */\n      tag_62\n      swap2\n      swap1\n      tag_63\n      jump\t// in\n    tag_62:\n        /* \"Campaign.sol\":2088:2111  (approversCount * 7)/10 */\n      tag_64\n      swap2\n      swap1\n      tag_65\n      jump\t// in\n    tag_64:\n        /* \"Campaign.sol\":2064:2071  request */\n      dup2\n        /* \"Campaign.sol\":2064:2085  request.approvalCount */\n      0x03\n      add\n      sload\n        /* \"Campaign.sol\":2064:2111  request.approvalCount > (approversCount * 7)/10 */\n      gt\n        /* \"Campaign.sol\":2056:2112  require(request.approvalCount > (approversCount * 7)/10) */\n      tag_66\n      jumpi\n      0x00\n      dup1\n      revert\n    tag_66:\n        /* \"Campaign.sol\":2123:2130  request */\n      dup1\n        /* \"Campaign.sol\":2123:2140  request.recipient */\n      0x02\n      add\n      0x00\n      swap1\n      sload\n      swap1\n      0x0100\n      exp\n      swap1\n      div\n      0xffffffffffffffffffffffffffffffffffffffff\n      and\n        /* \"Campaign.sol\":2123:2149  request.recipient.transfer */\n      0xffffffffffffffffffffffffffffffffffffffff\n      and\n        /* \"Campaign.sol\":2123:2164  request.recipient.transfer(request.value) */\n      0x08fc\n        /* \"Campaign.sol\":2150:2157  request */\n      dup3\n        /* \"Campaign.sol\":2150:2163  request.value */\n      0x01\n      add\n      sload\n        /* \"Campaign.sol\":2123:2164  request.recipient.transfer(request.value) */\n      swap1\n      dup2\n      iszero\n      mul\n      swap1\n      mload(0x40)\n      0x00\n      mload(0x40)\n      dup1\n      dup4\n      sub\n      dup2\n      dup6\n      dup9\n      dup9\n      call\n      swap4\n      pop\n      pop\n      pop\n      pop\n      iszero\n      dup1\n      iszero\n      tag_68\n      jumpi\n      returndatasize\n      0x00\n      dup1\n      returndatacopy\n      revert(0x00, returndatasize)\n    tag_68:\n      pop\n        /* \"Campaign.sol\":2193:2197  true */\n      0x01\n        /* \"Campaign.sol\":2174:2181  request */\n      dup2\n        /* \"Campaign.sol\":2174:2190  request.complete */\n      0x02\n      add\n      0x14\n        /* \"Campaign.sol\":2174:2197  request.complete = true */\n      0x0100\n      exp\n      dup2\n      sload\n      dup2\n      0xff\n      mul\n      not\n      and\n      swap1\n      dup4\n      iszero\n      iszero\n      mul\n      or\n      swap1\n      sstore\n      pop\n        /* \"Campaign.sol\":1958:2204  {... */\n      pop\n        /* \"Campaign.sol\":1895:2204  function finalizeRequest(uint index) public payable restricted {... */\n      pop\n      jump\t// out\n        /* \"Campaign.sol\":748:789  mapping(address => bool) public approvers */\n    tag_20:\n      mstore(0x20, 0x03)\n      dup1\n      0x00\n      mstore\n      keccak256(0x00, 0x40)\n      0x00\n      swap2\n      pop\n      sload\n      swap1\n      0x0100\n      exp\n      swap1\n      div\n      0xff\n      and\n      dup2\n      jump\t// out\n        /* \"Campaign.sol\":683:705  address public manager */\n    tag_25:\n      0x01\n      0x00\n      swap1\n      sload\n      swap1\n      0x0100\n      exp\n      swap1\n      div\n      0xffffffffffffffffffffffffffffffffffffffff\n      and\n      dup2\n      jump\t// out\n        /* \"Campaign.sol\":652:677  Request[] public requests */\n    tag_31:\n      0x00\n      dup2\n      dup2\n      sload\n      dup2\n      lt\n      tag_69\n      jumpi\n      0x00\n      dup1\n      revert\n    tag_69:\n      swap1\n      0x00\n      mstore\n      keccak256(0x00, 0x20)\n      swap1\n      0x05\n      mul\n      add\n      0x00\n      swap2\n      pop\n      swap1\n      pop\n      dup1\n      0x00\n      add\n      dup1\n      sload\n      tag_71\n      swap1\n      tag_72\n      jump\t// in\n    tag_71:\n      dup1\n      0x1f\n      add\n      0x20\n      dup1\n      swap2\n      div\n      mul\n      0x20\n      add\n      mload(0x40)\n      swap1\n      dup2\n      add\n      0x40\n      mstore\n      dup1\n      swap3\n      swap2\n      swap1\n      dup2\n      dup2\n      mstore\n      0x20\n      add\n      dup3\n      dup1\n      sload\n      tag_73\n      swap1\n      tag_72\n      jump\t// in\n    tag_73:\n      dup1\n      iszero\n      tag_74\n      jumpi\n      dup1\n      0x1f\n      lt\n      tag_75\n      jumpi\n      0x0100\n      dup1\n      dup4\n      sload\n      div\n      mul\n      dup4\n      mstore\n      swap2\n      0x20\n      add\n      swap2\n      jump(tag_74)\n    tag_75:\n      dup3\n      add\n      swap2\n      swap1\n      0x00\n      mstore\n      keccak256(0x00, 0x20)\n      swap1\n    tag_76:\n      dup2\n      sload\n      dup2\n      mstore\n      swap1\n      0x01\n      add\n      swap1\n      0x20\n      add\n      dup1\n      dup4\n      gt\n      tag_76\n      jumpi\n      dup3\n      swap1\n      sub\n      0x1f\n      and\n      dup3\n      add\n      swap2\n    tag_74:\n      pop\n      pop\n      pop\n      pop\n      pop\n      swap1\n      dup1\n      0x01\n      add\n      sload\n      swap1\n      dup1\n      0x02\n      add\n      0x00\n      swap1\n      sload\n      swap1\n      0x0100\n      exp\n      swap1\n      div\n      0xffffffffffffffffffffffffffffffffffffffff\n      and\n      swap1\n      dup1\n      0x02\n      add\n      0x14\n      swap1\n      sload\n      swap1\n      0x0100\n      exp\n      swap1\n      div\n      0xff\n      and\n      swap1\n      dup1\n      0x03\n      add\n      sload\n      swap1\n      pop\n      dup6\n      jump\t// out\n        /* \"Campaign.sol\":795:821  uint public approversCount */\n    tag_36:\n      sload(0x04)\n      dup2\n      jump\t// out\n        /* \"Campaign.sol\":1202:1568  function createRequest(string memory description, uint value, address payable recipient) public restricted {... */\n    tag_43:\n        /* \"Campaign.sol\":882:889  manager */\n      0x01\n      0x00\n      swap1\n      sload\n      swap1\n      0x0100\n      exp\n      swap1\n      div\n      0xffffffffffffffffffffffffffffffffffffffff\n      and\n        /* \"Campaign.sol\":868:889  msg.sender == manager */\n      0xffffffffffffffffffffffffffffffffffffffff\n      and\n        /* \"Campaign.sol\":868:878  msg.sender */\n      caller\n        /* \"Campaign.sol\":868:889  msg.sender == manager */\n      0xffffffffffffffffffffffffffffffffffffffff\n      and\n      eq\n        /* \"Campaign.sol\":860:890  require(msg.sender == manager) */\n      tag_78\n      jumpi\n      0x00\n      dup1\n      revert\n    tag_78:\n        /* \"Campaign.sol\":1319:1345  Request storage newRequest */\n      0x00\n        /* \"Campaign.sol\":1348:1356  requests */\n      dup1\n        /* \"Campaign.sol\":1348:1363  requests.push() */\n      0x01\n      dup2\n      0x01\n      dup2\n      sload\n      add\n      dup1\n      dup3\n      sstore\n      dup1\n      swap2\n      pop\n      pop\n      sub\n      swap1\n      0x00\n      mstore\n      keccak256(0x00, 0x20)\n      swap1\n      0x05\n      mul\n      add\n        /* \"Campaign.sol\":1319:1363  Request storage newRequest = requests.push() */\n      swap1\n      pop\n        /* \"Campaign.sol\":1399:1410  description */\n      dup4\n        /* \"Campaign.sol\":1374:1384  newRequest */\n      dup2\n        /* \"Campaign.sol\":1374:1396  newRequest.description */\n      0x00\n      add\n        /* \"Campaign.sol\":1374:1410  newRequest.description = description */\n      swap1\n      dup2\n      tag_81\n      swap2\n      swap1\n      tag_82\n      jump\t// in\n    tag_81:\n      pop\n        /* \"Campaign.sol\":1439:1444  value */\n      dup3\n        /* \"Campaign.sol\":1420:1430  newRequest */\n      dup2\n        /* \"Campaign.sol\":1420:1436  newRequest.value */\n      0x01\n      add\n        /* \"Campaign.sol\":1420:1444  newRequest.value = value */\n      dup2\n      swap1\n      sstore\n      pop\n        /* \"Campaign.sol\":1477:1486  recipient */\n      dup2\n        /* \"Campaign.sol\":1454:1464  newRequest */\n      dup2\n        /* \"Campaign.sol\":1454:1474  newRequest.recipient */\n      0x02\n      add\n      0x00\n        /* \"Campaign.sol\":1454:1486  newRequest.recipient = recipient */\n      0x0100\n      exp\n      dup2\n      sload\n      dup2\n      0xffffffffffffffffffffffffffffffffffffffff\n      mul\n      not\n      and\n      swap1\n      dup4\n      0xffffffffffffffffffffffffffffffffffffffff\n      and\n      mul\n      or\n      swap1\n      sstore\n      pop\n        /* \"Campaign.sol\":1518:1523  false */\n      0x00\n        /* \"Campaign.sol\":1496:1506  newRequest */\n      dup2\n        /* \"Campaign.sol\":1496:1515  newRequest.complete */\n      0x02\n      add\n      0x14\n        /* \"Campaign.sol\":1496:1523  newRequest.complete = false */\n      0x0100\n      exp\n      dup2\n      sload\n      dup2\n      0xff\n      mul\n      not\n      and\n      swap1\n      dup4\n      iszero\n      iszero\n      mul\n      or\n      swap1\n      sstore\n      pop\n        /* \"Campaign.sol\":1560:1561  0 */\n      0x00\n        /* \"Campaign.sol\":1533:1543  newRequest */\n      dup2\n        /* \"Campaign.sol\":1533:1557  newRequest.approvalCount */\n      0x03\n      add\n        /* \"Campaign.sol\":1533:1561  newRequest.approvalCount = 0 */\n      dup2\n      swap1\n      sstore\n      pop\n        /* \"Campaign.sol\":1309:1568  {... */\n      pop\n        /* \"Campaign.sol\":1202:1568  function createRequest(string memory description, uint value, address payable recipient) public restricted {... */\n      pop\n      pop\n      pop\n      jump\t// out\n        /* \"Campaign.sol\":711:742  uint public minimumContribution */\n    tag_46:\n      sload(0x02)\n      dup2\n      jump\t// out\n        /* \"Campaign.sol\":1036:1196  function contribute() public payable {... */\n    tag_49:\n        /* \"Campaign.sol\":1104:1123  minimumContribution */\n      sload(0x02)\n        /* \"Campaign.sol\":1091:1100  msg.value */\n      callvalue\n        /* \"Campaign.sol\":1091:1123  msg.value >= minimumContribution */\n      lt\n      iszero\n        /* \"Campaign.sol\":1083:1124  require(msg.value >= minimumContribution) */\n      tag_84\n      jumpi\n      0x00\n      dup1\n      revert\n    tag_84:\n        /* \"Campaign.sol\":1159:1163  true */\n      0x01\n        /* \"Campaign.sol\":1135:1144  approvers */\n      0x03\n        /* \"Campaign.sol\":1135:1156  approvers[msg.sender] */\n      0x00\n        /* \"Campaign.sol\":1145:1155  msg.sender */\n      caller\n        /* \"Campaign.sol\":1135:1156  approvers[msg.sender] */\n      0xffffffffffffffffffffffffffffffffffffffff\n      and\n      0xffffffffffffffffffffffffffffffffffffffff\n      and\n      dup2\n      mstore\n      0x20\n      add\n      swap1\n      dup2\n      mstore\n      0x20\n      add\n      0x00\n      keccak256\n      0x00\n        /* \"Campaign.sol\":1135:1163  approvers[msg.sender] = true */\n      0x0100\n      exp\n      dup2\n      sload\n      dup2\n      0xff\n      mul\n      not\n      and\n      swap1\n      dup4\n      iszero\n      iszero\n      mul\n      or\n      swap1\n      sstore\n      pop\n        /* \"Campaign.sol\":1173:1187  approversCount */\n      0x04\n      0x00\n        /* \"Campaign.sol\":1173:1189  approversCount++ */\n      dup2\n      sload\n      dup1\n      swap3\n      swap2\n      swap1\n      tag_85\n      swap1\n      tag_86\n      jump\t// in\n    tag_85:\n      swap2\n      swap1\n      pop\n      sstore\n      pop\n        /* \"Campaign.sol\":1036:1196  function contribute() public payable {... */\n      jump\t// out\n        /* \"Campaign.sol\":1574:1889  function approveRequest(uint index) public {... */\n    tag_53:\n        /* \"Campaign.sol\":1627:1650  Request storage request */\n      0x00\n        /* \"Campaign.sol\":1653:1661  requests */\n      dup1\n        /* \"Campaign.sol\":1662:1667  index */\n      dup3\n        /* \"Campaign.sol\":1653:1668  requests[index] */\n      dup2\n      sload\n      dup2\n      lt\n      tag_88\n      jumpi\n      tag_89\n      tag_59\n      jump\t// in\n    tag_89:\n    tag_88:\n      swap1\n      0x00\n      mstore\n      keccak256(0x00, 0x20)\n      swap1\n      0x05\n      mul\n      add\n        /* \"Campaign.sol\":1627:1668  Request storage request = requests[index] */\n      swap1\n      pop\n        /* \"Campaign.sol\":1687:1696  approvers */\n      0x03\n        /* \"Campaign.sol\":1687:1708  approvers[msg.sender] */\n      0x00\n        /* \"Campaign.sol\":1697:1707  msg.sender */\n      caller\n        /* \"Campaign.sol\":1687:1708  approvers[msg.sender] */\n      0xffffffffffffffffffffffffffffffffffffffff\n      and\n      0xffffffffffffffffffffffffffffffffffffffff\n      and\n      dup2\n      mstore\n      0x20\n      add\n      swap1\n      dup2\n      mstore\n      0x20\n      add\n      0x00\n      keccak256\n      0x00\n      swap1\n      sload\n      swap1\n      0x0100\n      exp\n      swap1\n      div\n      0xff\n      and\n        /* \"Campaign.sol\":1679:1709  require(approvers[msg.sender]) */\n      tag_91\n      jumpi\n      0x00\n      dup1\n      revert\n    tag_91:\n        /* \"Campaign.sol\":1747:1752  false */\n      0x00\n        /* \"Campaign.sol\":1727:1752  request.complete == false */\n      iszero\n      iszero\n        /* \"Campaign.sol\":1727:1734  request */\n      dup2\n        /* \"Campaign.sol\":1727:1743  request.complete */\n      0x02\n      add\n      0x14\n      swap1\n      sload\n      swap1\n      0x0100\n      exp\n      swap1\n      div\n      0xff\n      and\n        /* \"Campaign.sol\":1727:1752  request.complete == false */\n      iszero\n      iszero\n      eq\n        /* \"Campaign.sol\":1719:1753  require(request.complete == false) */\n      tag_92\n      jumpi\n      0x00\n      dup1\n      revert\n    tag_92:\n        /* \"Campaign.sol\":1772:1779  request */\n      dup1\n        /* \"Campaign.sol\":1772:1789  request.approvals */\n      0x04\n      add\n        /* \"Campaign.sol\":1772:1801  request.approvals[msg.sender] */\n      0x00\n        /* \"Campaign.sol\":1790:1800  msg.sender */\n      caller\n        /* \"Campaign.sol\":1772:1801  request.approvals[msg.sender] */\n      0xffffffffffffffffffffffffffffffffffffffff\n      and\n      0xffffffffffffffffffffffffffffffffffffffff\n      and\n      dup2\n      mstore\n      0x20\n      add\n      swap1\n      dup2\n      mstore\n      0x20\n      add\n      0x00\n      keccak256\n      0x00\n      swap1\n      sload\n      swap1\n      0x0100\n      exp\n      swap1\n      div\n      0xff\n      and\n        /* \"Campaign.sol\":1771:1801  !request.approvals[msg.sender] */\n      iszero\n        /* \"Campaign.sol\":1763:1802  require(!request.approvals[msg.sender]) */\n      tag_93\n      jumpi\n      0x00\n      dup1\n      revert\n    tag_93:\n        /* \"Campaign.sol\":1813:1820  request */\n      dup1\n        /* \"Campaign.sol\":1813:1834  request.approvalCount */\n      0x03\n      add\n      0x00\n        /* \"Campaign.sol\":1813:1836  request.approvalCount++ */\n      dup2\n      sload\n      dup1\n      swap3\n      swap2\n      swap1\n      tag_94\n      swap1\n      tag_86\n      jump\t// in\n    tag_94:\n      swap2\n      swap1\n      pop\n      sstore\n      pop\n        /* \"Campaign.sol\":1878:1882  true */\n      0x01\n        /* \"Campaign.sol\":1846:1853  request */\n      dup2\n        /* \"Campaign.sol\":1846:1863  request.approvals */\n      0x04\n      add\n        /* \"Campaign.sol\":1846:1875  request.approvals[msg.sender] */\n      0x00\n        /* \"Campaign.sol\":1864:1874  msg.sender */\n      caller\n        /* \"Campaign.sol\":1846:1875  request.approvals[msg.sender] */\n      0xffffffffffffffffffffffffffffffffffffffff\n      and\n      0xffffffffffffffffffffffffffffffffffffffff\n      and\n      dup2\n      mstore\n      0x20\n      add\n      swap1\n      dup2\n      mstore\n      0x20\n      add\n      0x00\n      keccak256\n      0x00\n        /* \"Campaign.sol\":1846:1882  request.approvals[msg.sender] = true */\n      0x0100\n      exp\n      dup2\n      sload\n      dup2\n      0xff\n      mul\n      not\n      and\n      swap1\n      dup4\n      iszero\n      iszero\n      mul\n      or\n      swap1\n      sstore\n      pop\n        /* \"Campaign.sol\":1617:1889  {... */\n      pop\n        /* \"Campaign.sol\":1574:1889  function approveRequest(uint index) public {... */\n      pop\n      jump\t// out\n        /* \"#utility.yul\":7:82   */\n    tag_95:\n        /* \"#utility.yul\":40:46   */\n      0x00\n        /* \"#utility.yul\":73:75   */\n      0x40\n        /* \"#utility.yul\":67:76   */\n      mload\n        /* \"#utility.yul\":57:76   */\n      swap1\n      pop\n        /* \"#utility.yul\":7:82   */\n      swap1\n      jump\t// out\n        /* \"#utility.yul\":88:205   */\n    tag_96:\n        /* \"#utility.yul\":197:198   */\n      0x00\n        /* \"#utility.yul\":194:195   */\n      dup1\n        /* \"#utility.yul\":187:199   */\n      revert\n        /* \"#utility.yul\":211:328   */\n    tag_97:\n        /* \"#utility.yul\":320:321   */\n      0x00\n        /* \"#utility.yul\":317:318   */\n      dup1\n        /* \"#utility.yul\":310:322   */\n      revert\n        /* \"#utility.yul\":334:411   */\n    tag_98:\n        /* \"#utility.yul\":371:378   */\n      0x00\n        /* \"#utility.yul\":400:405   */\n      dup2\n        /* \"#utility.yul\":389:405   */\n      swap1\n      pop\n        /* \"#utility.yul\":334:411   */\n      swap2\n      swap1\n      pop\n      jump\t// out\n        /* \"#utility.yul\":417:539   */\n    tag_99:\n        /* \"#utility.yul\":490:514   */\n      tag_151\n        /* \"#utility.yul\":508:513   */\n      dup2\n        /* \"#utility.yul\":490:514   */\n      tag_98\n      jump\t// in\n    tag_151:\n        /* \"#utility.yul\":483:488   */\n      dup2\n        /* \"#utility.yul\":480:515   */\n      eq\n        /* \"#utility.yul\":470:533   */\n      tag_152\n      jumpi\n        /* \"#utility.yul\":529:530   */\n      0x00\n        /* \"#utility.yul\":526:527   */\n      dup1\n        /* \"#utility.yul\":519:531   */\n      revert\n        /* \"#utility.yul\":470:533   */\n    tag_152:\n        /* \"#utility.yul\":417:539   */\n      pop\n      jump\t// out\n        /* \"#utility.yul\":545:684   */\n    tag_100:\n        /* \"#utility.yul\":591:596   */\n      0x00\n        /* \"#utility.yul\":629:635   */\n      dup2\n        /* \"#utility.yul\":616:636   */\n      calldataload\n        /* \"#utility.yul\":607:636   */\n      swap1\n      pop\n        /* \"#utility.yul\":645:678   */\n      tag_154\n        /* \"#utility.yul\":672:677   */\n      dup2\n        /* \"#utility.yul\":645:678   */\n      tag_99\n      jump\t// in\n    tag_154:\n        /* \"#utility.yul\":545:684   */\n      swap3\n      swap2\n      pop\n      pop\n      jump\t// out\n        /* \"#utility.yul\":690:1019   */\n    tag_14:\n        /* \"#utility.yul\":749:755   */\n      0x00\n        /* \"#utility.yul\":798:800   */\n      0x20\n        /* \"#utility.yul\":786:795   */\n      dup3\n        /* \"#utility.yul\":777:784   */\n      dup5\n        /* \"#utility.yul\":773:796   */\n      sub\n        /* \"#utility.yul\":769:801   */\n      slt\n        /* \"#utility.yul\":766:885   */\n      iszero\n      tag_156\n      jumpi\n        /* \"#utility.yul\":804:883   */\n      tag_157\n      tag_96\n      jump\t// in\n    tag_157:\n        /* \"#utility.yul\":766:885   */\n    tag_156:\n        /* \"#utility.yul\":924:925   */\n      0x00\n        /* \"#utility.yul\":949:1002   */\n      tag_158\n        /* \"#utility.yul\":994:1001   */\n      dup5\n        /* \"#utility.yul\":985:991   */\n      dup3\n        /* \"#utility.yul\":974:983   */\n      dup6\n        /* \"#utility.yul\":970:992   */\n      add\n        /* \"#utility.yul\":949:1002   */\n      tag_100\n      jump\t// in\n    tag_158:\n        /* \"#utility.yul\":939:1002   */\n      swap2\n      pop\n        /* \"#utility.yul\":895:1012   */\n      pop\n        /* \"#utility.yul\":690:1019   */\n      swap3\n      swap2\n      pop\n      pop\n      jump\t// out\n        /* \"#utility.yul\":1025:1151   */\n    tag_101:\n        /* \"#utility.yul\":1062:1069   */\n      0x00\n        /* \"#utility.yul\":1102:1144   */\n      0xffffffffffffffffffffffffffffffffffffffff\n        /* \"#utility.yul\":1095:1100   */\n      dup3\n        /* \"#utility.yul\":1091:1145   */\n      and\n        /* \"#utility.yul\":1080:1145   */\n      swap1\n      pop\n        /* \"#utility.yul\":1025:1151   */\n      swap2\n      swap1\n      pop\n      jump\t// out\n        /* \"#utility.yul\":1157:1253   */\n    tag_102:\n        /* \"#utility.yul\":1194:1201   */\n      0x00\n        /* \"#utility.yul\":1223:1247   */\n      tag_161\n        /* \"#utility.yul\":1241:1246   */\n      dup3\n        /* \"#utility.yul\":1223:1247   */\n      tag_101\n      jump\t// in\n    tag_161:\n        /* \"#utility.yul\":1212:1247   */\n      swap1\n      pop\n        /* \"#utility.yul\":1157:1253   */\n      swap2\n      swap1\n      pop\n      jump\t// out\n        /* \"#utility.yul\":1259:1381   */\n    tag_103:\n        /* \"#utility.yul\":1332:1356   */\n      tag_163\n        /* \"#utility.yul\":1350:1355   */\n      dup2\n        /* \"#utility.yul\":1332:1356   */\n      tag_102\n      jump\t// in\n    tag_163:\n        /* \"#utility.yul\":1325:1330   */\n      dup2\n        /* \"#utility.yul\":1322:1357   */\n      eq\n        /* \"#utility.yul\":1312:1375   */\n      tag_164\n      jumpi\n        /* \"#utility.yul\":1371:1372   */\n      0x00\n        /* \"#utility.yul\":1368:1369   */\n      dup1\n        /* \"#utility.yul\":1361:1373   */\n      revert\n        /* \"#utility.yul\":1312:1375   */\n    tag_164:\n        /* \"#utility.yul\":1259:1381   */\n      pop\n      jump\t// out\n        /* \"#utility.yul\":1387:1526   */\n    tag_104:\n        /* \"#utility.yul\":1433:1438   */\n      0x00\n        /* \"#utility.yul\":1471:1477   */\n      dup2\n        /* \"#utility.yul\":1458:1478   */\n      calldataload\n        /* \"#utility.yul\":1449:1478   */\n      swap1\n      pop\n        /* \"#utility.yul\":1487:1520   */\n      tag_166\n        /* \"#utility.yul\":1514:1519   */\n      dup2\n        /* \"#utility.yul\":1487:1520   */\n      tag_103\n      jump\t// in\n    tag_166:\n        /* \"#utility.yul\":1387:1526   */\n      swap3\n      swap2\n      pop\n      pop\n      jump\t// out\n        /* \"#utility.yul\":1532:1861   */\n    tag_19:\n        /* \"#utility.yul\":1591:1597   */\n      0x00\n        /* \"#utility.yul\":1640:1642   */\n      0x20\n        /* \"#utility.yul\":1628:1637   */\n      dup3\n        /* \"#utility.yul\":1619:1626   */\n      dup5\n        /* \"#utility.yul\":1615:1638   */\n      sub\n        /* \"#utility.yul\":1611:1643   */\n      slt\n        /* \"#utility.yul\":1608:1727   */\n      iszero\n      tag_168\n      jumpi\n        /* \"#utility.yul\":1646:1725   */\n      tag_169\n      tag_96\n      jump\t// in\n    tag_169:\n        /* \"#utility.yul\":1608:1727   */\n    tag_168:\n        /* \"#utility.yul\":1766:1767   */\n      0x00\n        /* \"#utility.yul\":1791:1844   */\n      tag_170\n        /* \"#utility.yul\":1836:1843   */\n      dup5\n        /* \"#utility.yul\":1827:1833   */\n      dup3\n        /* \"#utility.yul\":1816:1825   */\n      dup6\n        /* \"#utility.yul\":1812:1834   */\n      add\n        /* \"#utility.yul\":1791:1844   */\n      tag_104\n      jump\t// in\n    tag_170:\n        /* \"#utility.yul\":1781:1844   */\n      swap2\n      pop\n        /* \"#utility.yul\":1737:1854   */\n      pop\n        /* \"#utility.yul\":1532:1861   */\n      swap3\n      swap2\n      pop\n      pop\n      jump\t// out\n        /* \"#utility.yul\":1867:1957   */\n    tag_105:\n        /* \"#utility.yul\":1901:1908   */\n      0x00\n        /* \"#utility.yul\":1944:1949   */\n      dup2\n        /* \"#utility.yul\":1937:1950   */\n      iszero\n        /* \"#utility.yul\":1930:1951   */\n      iszero\n        /* \"#utility.yul\":1919:1951   */\n      swap1\n      pop\n        /* \"#utility.yul\":1867:1957   */\n      swap2\n      swap1\n      pop\n      jump\t// out\n        /* \"#utility.yul\":1963:2072   */\n    tag_106:\n        /* \"#utility.yul\":2044:2065   */\n      tag_173\n        /* \"#utility.yul\":2059:2064   */\n      dup2\n        /* \"#utility.yul\":2044:2065   */\n      tag_105\n      jump\t// in\n    tag_173:\n        /* \"#utility.yul\":2039:2042   */\n      dup3\n        /* \"#utility.yul\":2032:2066   */\n      mstore\n        /* \"#utility.yul\":1963:2072   */\n      pop\n      pop\n      jump\t// out\n        /* \"#utility.yul\":2078:2288   */\n    tag_22:\n        /* \"#utility.yul\":2165:2169   */\n      0x00\n        /* \"#utility.yul\":2203:2205   */\n      0x20\n        /* \"#utility.yul\":2192:2201   */\n      dup3\n        /* \"#utility.yul\":2188:2206   */\n      add\n        /* \"#utility.yul\":2180:2206   */\n      swap1\n      pop\n        /* \"#utility.yul\":2216:2281   */\n      tag_175\n        /* \"#utility.yul\":2278:2279   */\n      0x00\n        /* \"#utility.yul\":2267:2276   */\n      dup4\n        /* \"#utility.yul\":2263:2280   */\n      add\n        /* \"#utility.yul\":2254:2260   */\n      dup5\n        /* \"#utility.yul\":2216:2281   */\n      tag_106\n      jump\t// in\n    tag_175:\n        /* \"#utility.yul\":2078:2288   */\n      swap3\n      swap2\n      pop\n      pop\n      jump\t// out\n        /* \"#utility.yul\":2294:2412   */\n    tag_107:\n        /* \"#utility.yul\":2381:2405   */\n      tag_177\n        /* \"#utility.yul\":2399:2404   */\n      dup2\n        /* \"#utility.yul\":2381:2405   */\n      tag_102\n      jump\t// in\n    tag_177:\n        /* \"#utility.yul\":2376:2379   */\n      dup3\n        /* \"#utility.yul\":2369:2406   */\n      mstore\n        /* \"#utility.yul\":2294:2412   */\n      pop\n      pop\n      jump\t// out\n        /* \"#utility.yul\":2418:2640   */\n    tag_27:\n        /* \"#utility.yul\":2511:2515   */\n      0x00\n        /* \"#utility.yul\":2549:2551   */\n      0x20\n        /* \"#utility.yul\":2538:2547   */\n      dup3\n        /* \"#utility.yul\":2534:2552   */\n      add\n        /* \"#utility.yul\":2526:2552   */\n      swap1\n      pop\n        /* \"#utility.yul\":2562:2633   */\n      tag_179\n        /* \"#utility.yul\":2630:2631   */\n      0x00\n        /* \"#utility.yul\":2619:2628   */\n      dup4\n        /* \"#utility.yul\":2615:2632   */\n      add\n        /* \"#utility.yul\":2606:2612   */\n      dup5\n        /* \"#utility.yul\":2562:2633   */\n      tag_107\n      jump\t// in\n    tag_179:\n        /* \"#utility.yul\":2418:2640   */\n      swap3\n      swap2\n      pop\n      pop\n      jump\t// out\n        /* \"#utility.yul\":2646:2745   */\n    tag_108:\n        /* \"#utility.yul\":2698:2704   */\n      0x00\n        /* \"#utility.yul\":2732:2737   */\n      dup2\n        /* \"#utility.yul\":2726:2738   */\n      mload\n        /* \"#utility.yul\":2716:2738   */\n      swap1\n      pop\n        /* \"#utility.yul\":2646:2745   */\n      swap2\n      swap1\n      pop\n      jump\t// out\n        /* \"#utility.yul\":2751:2920   */\n    tag_109:\n        /* \"#utility.yul\":2835:2846   */\n      0x00\n        /* \"#utility.yul\":2869:2875   */\n      dup3\n        /* \"#utility.yul\":2864:2867   */\n      dup3\n        /* \"#utility.yul\":2857:2876   */\n      mstore\n        /* \"#utility.yul\":2909:2913   */\n      0x20\n        /* \"#utility.yul\":2904:2907   */\n      dup3\n        /* \"#utility.yul\":2900:2914   */\n      add\n        /* \"#utility.yul\":2885:2914   */\n      swap1\n      pop\n        /* \"#utility.yul\":2751:2920   */\n      swap3\n      swap2\n      pop\n      pop\n      jump\t// out\n        /* \"#utility.yul\":2926:3172   */\n    tag_110:\n        /* \"#utility.yul\":3007:3008   */\n      0x00\n        /* \"#utility.yul\":3017:3130   */\n    tag_183:\n        /* \"#utility.yul\":3031:3037   */\n      dup4\n        /* \"#utility.yul\":3028:3029   */\n      dup2\n        /* \"#utility.yul\":3025:3038   */\n      lt\n        /* \"#utility.yul\":3017:3130   */\n      iszero\n      tag_185\n      jumpi\n        /* \"#utility.yul\":3116:3117   */\n      dup1\n        /* \"#utility.yul\":3111:3114   */\n      dup3\n        /* \"#utility.yul\":3107:3118   */\n      add\n        /* \"#utility.yul\":3101:3119   */\n      mload\n        /* \"#utility.yul\":3097:3098   */\n      dup2\n        /* \"#utility.yul\":3092:3095   */\n      dup5\n        /* \"#utility.yul\":3088:3099   */\n      add\n        /* \"#utility.yul\":3081:3120   */\n      mstore\n        /* \"#utility.yul\":3053:3055   */\n      0x20\n        /* \"#utility.yul\":3050:3051   */\n      dup2\n        /* \"#utility.yul\":3046:3056   */\n      add\n        /* \"#utility.yul\":3041:3056   */\n      swap1\n      pop\n        /* \"#utility.yul\":3017:3130   */\n      jump(tag_183)\n    tag_185:\n        /* \"#utility.yul\":3164:3165   */\n      0x00\n        /* \"#utility.yul\":3155:3161   */\n      dup5\n        /* \"#utility.yul\":3150:3153   */\n      dup5\n        /* \"#utility.yul\":3146:3162   */\n      add\n        /* \"#utility.yul\":3139:3166   */\n      mstore\n        /* \"#utility.yul\":2988:3172   */\n      pop\n        /* \"#utility.yul\":2926:3172   */\n      pop\n      pop\n      pop\n      jump\t// out\n        /* \"#utility.yul\":3178:3280   */\n    tag_111:\n        /* \"#utility.yul\":3219:3225   */\n      0x00\n        /* \"#utility.yul\":3270:3272   */\n      0x1f\n        /* \"#utility.yul\":3266:3273   */\n      not\n        /* \"#utility.yul\":3261:3263   */\n      0x1f\n        /* \"#utility.yul\":3254:3259   */\n      dup4\n        /* \"#utility.yul\":3250:3264   */\n      add\n        /* \"#utility.yul\":3246:3274   */\n      and\n        /* \"#utility.yul\":3236:3274   */\n      swap1\n      pop\n        /* \"#utility.yul\":3178:3280   */\n      swap2\n      swap1\n      pop\n      jump\t// out\n        /* \"#utility.yul\":3286:3663   */\n    tag_112:\n        /* \"#utility.yul\":3374:3377   */\n      0x00\n        /* \"#utility.yul\":3402:3441   */\n      tag_188\n        /* \"#utility.yul\":3435:3440   */\n      dup3\n        /* \"#utility.yul\":3402:3441   */\n      tag_108\n      jump\t// in\n    tag_188:\n        /* \"#utility.yul\":3457:3528   */\n      tag_189\n        /* \"#utility.yul\":3521:3527   */\n      dup2\n        /* \"#utility.yul\":3516:3519   */\n      dup6\n        /* \"#utility.yul\":3457:3528   */\n      tag_109\n      jump\t// in\n    tag_189:\n        /* \"#utility.yul\":3450:3528   */\n      swap4\n      pop\n        /* \"#utility.yul\":3537:3602   */\n      tag_190\n        /* \"#utility.yul\":3595:3601   */\n      dup2\n        /* \"#utility.yul\":3590:3593   */\n      dup6\n        /* \"#utility.yul\":3583:3587   */\n      0x20\n        /* \"#utility.yul\":3576:3581   */\n      dup7\n        /* \"#utility.yul\":3572:3588   */\n      add\n        /* \"#utility.yul\":3537:3602   */\n      tag_110\n      jump\t// in\n    tag_190:\n        /* \"#utility.yul\":3627:3656   */\n      tag_191\n        /* \"#utility.yul\":3649:3655   */\n      dup2\n        /* \"#utility.yul\":3627:3656   */\n      tag_111\n      jump\t// in\n    tag_191:\n        /* \"#utility.yul\":3622:3625   */\n      dup5\n        /* \"#utility.yul\":3618:3657   */\n      add\n        /* \"#utility.yul\":3611:3657   */\n      swap2\n      pop\n        /* \"#utility.yul\":3378:3663   */\n      pop\n        /* \"#utility.yul\":3286:3663   */\n      swap3\n      swap2\n      pop\n      pop\n      jump\t// out\n        /* \"#utility.yul\":3669:3787   */\n    tag_113:\n        /* \"#utility.yul\":3756:3780   */\n      tag_193\n        /* \"#utility.yul\":3774:3779   */\n      dup2\n        /* \"#utility.yul\":3756:3780   */\n      tag_98\n      jump\t// in\n    tag_193:\n        /* \"#utility.yul\":3751:3754   */\n      dup3\n        /* \"#utility.yul\":3744:3781   */\n      mstore\n        /* \"#utility.yul\":3669:3787   */\n      pop\n      pop\n      jump\t// out\n        /* \"#utility.yul\":3793:3897   */\n    tag_114:\n        /* \"#utility.yul\":3838:3845   */\n      0x00\n        /* \"#utility.yul\":3867:3891   */\n      tag_195\n        /* \"#utility.yul\":3885:3890   */\n      dup3\n        /* \"#utility.yul\":3867:3891   */\n      tag_101\n      jump\t// in\n    tag_195:\n        /* \"#utility.yul\":3856:3891   */\n      swap1\n      pop\n        /* \"#utility.yul\":3793:3897   */\n      swap2\n      swap1\n      pop\n      jump\t// out\n        /* \"#utility.yul\":3903:4045   */\n    tag_115:\n        /* \"#utility.yul\":4006:4038   */\n      tag_197\n        /* \"#utility.yul\":4032:4037   */\n      dup2\n        /* \"#utility.yul\":4006:4038   */\n      tag_114\n      jump\t// in\n    tag_197:\n        /* \"#utility.yul\":4001:4004   */\n      dup3\n        /* \"#utility.yul\":3994:4039   */\n      mstore\n        /* \"#utility.yul\":3903:4045   */\n      pop\n      pop\n      jump\t// out\n        /* \"#utility.yul\":4051:4826   */\n    tag_33:\n        /* \"#utility.yul\":4286:4290   */\n      0x00\n        /* \"#utility.yul\":4324:4327   */\n      0xa0\n        /* \"#utility.yul\":4313:4322   */\n      dup3\n        /* \"#utility.yul\":4309:4328   */\n      add\n        /* \"#utility.yul\":4301:4328   */\n      swap1\n      pop\n        /* \"#utility.yul\":4374:4383   */\n      dup2\n        /* \"#utility.yul\":4368:4372   */\n      dup2\n        /* \"#utility.yul\":4364:4384   */\n      sub\n        /* \"#utility.yul\":4360:4361   */\n      0x00\n        /* \"#utility.yul\":4349:4358   */\n      dup4\n        /* \"#utility.yul\":4345:4362   */\n      add\n        /* \"#utility.yul\":4338:4385   */\n      mstore\n        /* \"#utility.yul\":4402:4480   */\n      tag_199\n        /* \"#utility.yul\":4475:4479   */\n      dup2\n        /* \"#utility.yul\":4466:4472   */\n      dup9\n        /* \"#utility.yul\":4402:4480   */\n      tag_112\n      jump\t// in\n    tag_199:\n        /* \"#utility.yul\":4394:4480   */\n      swap1\n      pop\n        /* \"#utility.yul\":4490:4562   */\n      tag_200\n        /* \"#utility.yul\":4558:4560   */\n      0x20\n        /* \"#utility.yul\":4547:4556   */\n      dup4\n        /* \"#utility.yul\":4543:4561   */\n      add\n        /* \"#utility.yul\":4534:4540   */\n      dup8\n        /* \"#utility.yul\":4490:4562   */\n      tag_113\n      jump\t// in\n    tag_200:\n        /* \"#utility.yul\":4572:4660   */\n      tag_201\n        /* \"#utility.yul\":4656:4658   */\n      0x40\n        /* \"#utility.yul\":4645:4654   */\n      dup4\n        /* \"#utility.yul\":4641:4659   */\n      add\n        /* \"#utility.yul\":4632:4638   */\n      dup7\n        /* \"#utility.yul\":4572:4660   */\n      tag_115\n      jump\t// in\n    tag_201:\n        /* \"#utility.yul\":4670:4736   */\n      tag_202\n        /* \"#utility.yul\":4732:4734   */\n      0x60\n        /* \"#utility.yul\":4721:4730   */\n      dup4\n        /* \"#utility.yul\":4717:4735   */\n      add\n        /* \"#utility.yul\":4708:4714   */\n      dup6\n        /* \"#utility.yul\":4670:4736   */\n      tag_106\n      jump\t// in\n    tag_202:\n        /* \"#utility.yul\":4746:4819   */\n      tag_203\n        /* \"#utility.yul\":4814:4817   */\n      0x80\n        /* \"#utility.yul\":4803:4812   */\n      dup4\n        /* \"#utility.yul\":4799:4818   */\n      add\n        /* \"#utility.yul\":4790:4796   */\n      dup5\n        /* \"#utility.yul\":4746:4819   */\n      tag_113\n      jump\t// in\n    tag_203:\n        /* \"#utility.yul\":4051:4826   */\n      swap7\n      swap6\n      pop\n      pop\n      pop\n      pop\n      pop\n      pop\n      jump\t// out\n        /* \"#utility.yul\":4832:5054   */\n    tag_38:\n        /* \"#utility.yul\":4925:4929   */\n      0x00\n        /* \"#utility.yul\":4963:4965   */\n      0x20\n        /* \"#utility.yul\":4952:4961   */\n      dup3\n        /* \"#utility.yul\":4948:4966   */\n      add\n        /* \"#utility.yul\":4940:4966   */\n      swap1\n      pop\n        /* \"#utility.yul\":4976:5047   */\n      tag_205\n        /* \"#utility.yul\":5044:5045   */\n      0x00\n        /* \"#utility.yul\":5033:5042   */\n      dup4\n        /* \"#utility.yul\":5029:5046   */\n      add\n        /* \"#utility.yul\":5020:5026   */\n      dup5\n        /* \"#utility.yul\":4976:5047   */\n      tag_113\n      jump\t// in\n    tag_205:\n        /* \"#utility.yul\":4832:5054   */\n      swap3\n      swap2\n      pop\n      pop\n      jump\t// out\n        /* \"#utility.yul\":5060:5177   */\n    tag_116:\n        /* \"#utility.yul\":5169:5170   */\n      0x00\n        /* \"#utility.yul\":5166:5167   */\n      dup1\n        /* \"#utility.yul\":5159:5171   */\n      revert\n        /* \"#utility.yul\":5183:5300   */\n    tag_117:\n        /* \"#utility.yul\":5292:5293   */\n      0x00\n        /* \"#utility.yul\":5289:5290   */\n      dup1\n        /* \"#utility.yul\":5282:5294   */\n      revert\n        /* \"#utility.yul\":5306:5486   */\n    tag_118:\n        /* \"#utility.yul\":5354:5431   */\n      0x4e487b7100000000000000000000000000000000000000000000000000000000\n        /* \"#utility.yul\":5351:5352   */\n      0x00\n        /* \"#utility.yul\":5344:5432   */\n      mstore\n        /* \"#utility.yul\":5451:5455   */\n      0x41\n        /* \"#utility.yul\":5448:5449   */\n      0x04\n        /* \"#utility.yul\":5441:5456   */\n      mstore\n        /* \"#utility.yul\":5475:5479   */\n      0x24\n        /* \"#utility.yul\":5472:5473   */\n      0x00\n        /* \"#utility.yul\":5465:5480   */\n      revert\n        /* \"#utility.yul\":5492:5773   */\n    tag_119:\n        /* \"#utility.yul\":5575:5602   */\n      tag_210\n        /* \"#utility.yul\":5597:5601   */\n      dup3\n        /* \"#utility.yul\":5575:5602   */\n      tag_111\n      jump\t// in\n    tag_210:\n        /* \"#utility.yul\":5567:5573   */\n      dup2\n        /* \"#utility.yul\":5563:5603   */\n      add\n        /* \"#utility.yul\":5705:5711   */\n      dup2\n        /* \"#utility.yul\":5693:5703   */\n      dup2\n        /* \"#utility.yul\":5690:5712   */\n      lt\n        /* \"#utility.yul\":5669:5687   */\n      0xffffffffffffffff\n        /* \"#utility.yul\":5657:5667   */\n      dup3\n        /* \"#utility.yul\":5654:5688   */\n      gt\n        /* \"#utility.yul\":5651:5713   */\n      or\n        /* \"#utility.yul\":5648:5736   */\n      iszero\n      tag_211\n      jumpi\n        /* \"#utility.yul\":5716:5734   */\n      tag_212\n      tag_118\n      jump\t// in\n    tag_212:\n        /* \"#utility.yul\":5648:5736   */\n    tag_211:\n        /* \"#utility.yul\":5756:5766   */\n      dup1\n        /* \"#utility.yul\":5752:5754   */\n      0x40\n        /* \"#utility.yul\":5745:5767   */\n      mstore\n        /* \"#utility.yul\":5535:5773   */\n      pop\n        /* \"#utility.yul\":5492:5773   */\n      pop\n      pop\n      jump\t// out\n        /* \"#utility.yul\":5779:5908   */\n    tag_120:\n        /* \"#utility.yul\":5813:5819   */\n      0x00\n        /* \"#utility.yul\":5840:5860   */\n      tag_214\n      tag_95\n      jump\t// in\n    tag_214:\n        /* \"#utility.yul\":5830:5860   */\n      swap1\n      pop\n        /* \"#utility.yul\":5869:5902   */\n      tag_215\n        /* \"#utility.yul\":5897:5901   */\n      dup3\n        /* \"#utility.yul\":5889:5895   */\n      dup3\n        /* \"#utility.yul\":5869:5902   */\n      tag_119\n      jump\t// in\n    tag_215:\n        /* \"#utility.yul\":5779:5908   */\n      swap2\n      swap1\n      pop\n      jump\t// out\n        /* \"#utility.yul\":5914:6222   */\n    tag_121:\n        /* \"#utility.yul\":5976:5980   */\n      0x00\n        /* \"#utility.yul\":6066:6084   */\n      0xffffffffffffffff\n        /* \"#utility.yul\":6058:6064   */\n      dup3\n        /* \"#utility.yul\":6055:6085   */\n      gt\n        /* \"#utility.yul\":6052:6108   */\n      iszero\n      tag_217\n      jumpi\n        /* \"#utility.yul\":6088:6106   */\n      tag_218\n      tag_118\n      jump\t// in\n    tag_218:\n        /* \"#utility.yul\":6052:6108   */\n    tag_217:\n        /* \"#utility.yul\":6126:6155   */\n      tag_219\n        /* \"#utility.yul\":6148:6154   */\n      dup3\n        /* \"#utility.yul\":6126:6155   */\n      tag_111\n      jump\t// in\n    tag_219:\n        /* \"#utility.yul\":6118:6155   */\n      swap1\n      pop\n        /* \"#utility.yul\":6210:6214   */\n      0x20\n        /* \"#utility.yul\":6204:6208   */\n      dup2\n        /* \"#utility.yul\":6200:6215   */\n      add\n        /* \"#utility.yul\":6192:6215   */\n      swap1\n      pop\n        /* \"#utility.yul\":5914:6222   */\n      swap2\n      swap1\n      pop\n      jump\t// out\n        /* \"#utility.yul\":6228:6374   */\n    tag_122:\n        /* \"#utility.yul\":6325:6331   */\n      dup3\n        /* \"#utility.yul\":6320:6323   */\n      dup2\n        /* \"#utility.yul\":6315:6318   */\n      dup4\n        /* \"#utility.yul\":6302:6332   */\n      calldatacopy\n        /* \"#utility.yul\":6366:6367   */\n      0x00\n        /* \"#utility.yul\":6357:6363   */\n      dup4\n        /* \"#utility.yul\":6352:6355   */\n      dup4\n        /* \"#utility.yul\":6348:6364   */\n      add\n        /* \"#utility.yul\":6341:6368   */\n      mstore\n        /* \"#utility.yul\":6228:6374   */\n      pop\n      pop\n      pop\n      jump\t// out\n        /* \"#utility.yul\":6380:6805   */\n    tag_123:\n        /* \"#utility.yul\":6458:6463   */\n      0x00\n        /* \"#utility.yul\":6483:6549   */\n      tag_222\n        /* \"#utility.yul\":6499:6548   */\n      tag_223\n        /* \"#utility.yul\":6541:6547   */\n      dup5\n        /* \"#utility.yul\":6499:6548   */\n      tag_121\n      jump\t// in\n    tag_223:\n        /* \"#utility.yul\":6483:6549   */\n      tag_120\n      jump\t// in\n    tag_222:\n        /* \"#utility.yul\":6474:6549   */\n      swap1\n      pop\n        /* \"#utility.yul\":6572:6578   */\n      dup3\n        /* \"#utility.yul\":6565:6570   */\n      dup2\n        /* \"#utility.yul\":6558:6579   */\n      mstore\n        /* \"#utility.yul\":6610:6614   */\n      0x20\n        /* \"#utility.yul\":6603:6608   */\n      dup2\n        /* \"#utility.yul\":6599:6615   */\n      add\n        /* \"#utility.yul\":6648:6651   */\n      dup5\n        /* \"#utility.yul\":6639:6645   */\n      dup5\n        /* \"#utility.yul\":6634:6637   */\n      dup5\n        /* \"#utility.yul\":6630:6646   */\n      add\n        /* \"#utility.yul\":6627:6652   */\n      gt\n        /* \"#utility.yul\":6624:6736   */\n      iszero\n      tag_224\n      jumpi\n        /* \"#utility.yul\":6655:6734   */\n      tag_225\n      tag_117\n      jump\t// in\n    tag_225:\n        /* \"#utility.yul\":6624:6736   */\n    tag_224:\n        /* \"#utility.yul\":6745:6799   */\n      tag_226\n        /* \"#utility.yul\":6792:6798   */\n      dup5\n        /* \"#utility.yul\":6787:6790   */\n      dup3\n        /* \"#utility.yul\":6782:6785   */\n      dup6\n        /* \"#utility.yul\":6745:6799   */\n      tag_122\n      jump\t// in\n    tag_226:\n        /* \"#utility.yul\":6464:6805   */\n      pop\n        /* \"#utility.yul\":6380:6805   */\n      swap4\n      swap3\n      pop\n      pop\n      pop\n      jump\t// out\n        /* \"#utility.yul\":6825:7165   */\n    tag_124:\n        /* \"#utility.yul\":6881:6886   */\n      0x00\n        /* \"#utility.yul\":6930:6933   */\n      dup3\n        /* \"#utility.yul\":6923:6927   */\n      0x1f\n        /* \"#utility.yul\":6915:6921   */\n      dup4\n        /* \"#utility.yul\":6911:6928   */\n      add\n        /* \"#utility.yul\":6907:6934   */\n      slt\n        /* \"#utility.yul\":6897:7019   */\n      tag_228\n      jumpi\n        /* \"#utility.yul\":6938:7017   */\n      tag_229\n      tag_116\n      jump\t// in\n    tag_229:\n        /* \"#utility.yul\":6897:7019   */\n    tag_228:\n        /* \"#utility.yul\":7055:7061   */\n      dup2\n        /* \"#utility.yul\":7042:7062   */\n      calldataload\n        /* \"#utility.yul\":7080:7159   */\n      tag_230\n        /* \"#utility.yul\":7155:7158   */\n      dup5\n        /* \"#utility.yul\":7147:7153   */\n      dup3\n        /* \"#utility.yul\":7140:7144   */\n      0x20\n        /* \"#utility.yul\":7132:7138   */\n      dup7\n        /* \"#utility.yul\":7128:7145   */\n      add\n        /* \"#utility.yul\":7080:7159   */\n      tag_123\n      jump\t// in\n    tag_230:\n        /* \"#utility.yul\":7071:7159   */\n      swap2\n      pop\n        /* \"#utility.yul\":6887:7165   */\n      pop\n        /* \"#utility.yul\":6825:7165   */\n      swap3\n      swap2\n      pop\n      pop\n      jump\t// out\n        /* \"#utility.yul\":7171:7309   */\n    tag_125:\n        /* \"#utility.yul\":7252:7284   */\n      tag_232\n        /* \"#utility.yul\":7278:7283   */\n      dup2\n        /* \"#utility.yul\":7252:7284   */\n      tag_114\n      jump\t// in\n    tag_232:\n        /* \"#utility.yul\":7245:7250   */\n      dup2\n        /* \"#utility.yul\":7242:7285   */\n      eq\n        /* \"#utility.yul\":7232:7303   */\n      tag_233\n      jumpi\n        /* \"#utility.yul\":7299:7300   */\n      0x00\n        /* \"#utility.yul\":7296:7297   */\n      dup1\n        /* \"#utility.yul\":7289:7301   */\n      revert\n        /* \"#utility.yul\":7232:7303   */\n    tag_233:\n        /* \"#utility.yul\":7171:7309   */\n      pop\n      jump\t// out\n        /* \"#utility.yul\":7315:7470   */\n    tag_126:\n        /* \"#utility.yul\":7369:7374   */\n      0x00\n        /* \"#utility.yul\":7407:7413   */\n      dup2\n        /* \"#utility.yul\":7394:7414   */\n      calldataload\n        /* \"#utility.yul\":7385:7414   */\n      swap1\n      pop\n        /* \"#utility.yul\":7423:7464   */\n      tag_235\n        /* \"#utility.yul\":7458:7463   */\n      dup2\n        /* \"#utility.yul\":7423:7464   */\n      tag_125\n      jump\t// in\n    tag_235:\n        /* \"#utility.yul\":7315:7470   */\n      swap3\n      swap2\n      pop\n      pop\n      jump\t// out\n        /* \"#utility.yul\":7476:8291   */\n    tag_42:\n        /* \"#utility.yul\":7571:7577   */\n      0x00\n        /* \"#utility.yul\":7579:7585   */\n      dup1\n        /* \"#utility.yul\":7587:7593   */\n      0x00\n        /* \"#utility.yul\":7636:7638   */\n      0x60\n        /* \"#utility.yul\":7624:7633   */\n      dup5\n        /* \"#utility.yul\":7615:7622   */\n      dup7\n        /* \"#utility.yul\":7611:7634   */\n      sub\n        /* \"#utility.yul\":7607:7639   */\n      slt\n        /* \"#utility.yul\":7604:7723   */\n      iszero\n      tag_237\n      jumpi\n        /* \"#utility.yul\":7642:7721   */\n      tag_238\n      tag_96\n      jump\t// in\n    tag_238:\n        /* \"#utility.yul\":7604:7723   */\n    tag_237:\n        /* \"#utility.yul\":7790:7791   */\n      0x00\n        /* \"#utility.yul\":7779:7788   */\n      dup5\n        /* \"#utility.yul\":7775:7792   */\n      add\n        /* \"#utility.yul\":7762:7793   */\n      calldataload\n        /* \"#utility.yul\":7820:7838   */\n      0xffffffffffffffff\n        /* \"#utility.yul\":7812:7818   */\n      dup2\n        /* \"#utility.yul\":7809:7839   */\n      gt\n        /* \"#utility.yul\":7806:7923   */\n      iszero\n      tag_239\n      jumpi\n        /* \"#utility.yul\":7842:7921   */\n      tag_240\n      tag_97\n      jump\t// in\n    tag_240:\n        /* \"#utility.yul\":7806:7923   */\n    tag_239:\n        /* \"#utility.yul\":7947:8010   */\n      tag_241\n        /* \"#utility.yul\":8002:8009   */\n      dup7\n        /* \"#utility.yul\":7993:7999   */\n      dup3\n        /* \"#utility.yul\":7982:7991   */\n      dup8\n        /* \"#utility.yul\":7978:8000   */\n      add\n        /* \"#utility.yul\":7947:8010   */\n      tag_124\n      jump\t// in\n    tag_241:\n        /* \"#utility.yul\":7937:8010   */\n      swap4\n      pop\n        /* \"#utility.yul\":7733:8020   */\n      pop\n        /* \"#utility.yul\":8059:8061   */\n      0x20\n        /* \"#utility.yul\":8085:8138   */\n      tag_242\n        /* \"#utility.yul\":8130:8137   */\n      dup7\n        /* \"#utility.yul\":8121:8127   */\n      dup3\n        /* \"#utility.yul\":8110:8119   */\n      dup8\n        /* \"#utility.yul\":8106:8128   */\n      add\n        /* \"#utility.yul\":8085:8138   */\n      tag_100\n      jump\t// in\n    tag_242:\n        /* \"#utility.yul\":8075:8138   */\n      swap3\n      pop\n        /* \"#utility.yul\":8030:8148   */\n      pop\n        /* \"#utility.yul\":8187:8189   */\n      0x40\n        /* \"#utility.yul\":8213:8274   */\n      tag_243\n        /* \"#utility.yul\":8266:8273   */\n      dup7\n        /* \"#utility.yul\":8257:8263   */\n      dup3\n        /* \"#utility.yul\":8246:8255   */\n      dup8\n        /* \"#utility.yul\":8242:8264   */\n      add\n        /* \"#utility.yul\":8213:8274   */\n      tag_126\n      jump\t// in\n    tag_243:\n        /* \"#utility.yul\":8203:8274   */\n      swap2\n      pop\n        /* \"#utility.yul\":8158:8284   */\n      pop\n        /* \"#utility.yul\":7476:8291   */\n      swap3\n      pop\n      swap3\n      pop\n      swap3\n      jump\t// out\n        /* \"#utility.yul\":8297:8477   */\n    tag_59:\n        /* \"#utility.yul\":8345:8422   */\n      0x4e487b7100000000000000000000000000000000000000000000000000000000\n        /* \"#utility.yul\":8342:8343   */\n      0x00\n        /* \"#utility.yul\":8335:8423   */\n      mstore\n        /* \"#utility.yul\":8442:8446   */\n      0x32\n        /* \"#utility.yul\":8439:8440   */\n      0x04\n        /* \"#utility.yul\":8432:8447   */\n      mstore\n        /* \"#utility.yul\":8466:8470   */\n      0x24\n        /* \"#utility.yul\":8463:8464   */\n      0x00\n        /* \"#utility.yul\":8456:8471   */\n      revert\n        /* \"#utility.yul\":8483:8663   */\n    tag_127:\n        /* \"#utility.yul\":8531:8608   */\n      0x4e487b7100000000000000000000000000000000000000000000000000000000\n        /* \"#utility.yul\":8528:8529   */\n      0x00\n        /* \"#utility.yul\":8521:8609   */\n      mstore\n        /* \"#utility.yul\":8628:8632   */\n      0x11\n        /* \"#utility.yul\":8625:8626   */\n      0x04\n        /* \"#utility.yul\":8618:8633   */\n      mstore\n        /* \"#utility.yul\":8652:8656   */\n      0x24\n        /* \"#utility.yul\":8649:8650   */\n      0x00\n        /* \"#utility.yul\":8642:8657   */\n      revert\n        /* \"#utility.yul\":8669:9079   */\n    tag_63:\n        /* \"#utility.yul\":8709:8716   */\n      0x00\n        /* \"#utility.yul\":8732:8752   */\n      tag_247\n        /* \"#utility.yul\":8750:8751   */\n      dup3\n        /* \"#utility.yul\":8732:8752   */\n      tag_98\n      jump\t// in\n    tag_247:\n        /* \"#utility.yul\":8727:8752   */\n      swap2\n      pop\n        /* \"#utility.yul\":8766:8786   */\n      tag_248\n        /* \"#utility.yul\":8784:8785   */\n      dup4\n        /* \"#utility.yul\":8766:8786   */\n      tag_98\n      jump\t// in\n    tag_248:\n        /* \"#utility.yul\":8761:8786   */\n      swap3\n      pop\n        /* \"#utility.yul\":8821:8822   */\n      dup3\n        /* \"#utility.yul\":8818:8819   */\n      dup3\n        /* \"#utility.yul\":8814:8823   */\n      mul\n        /* \"#utility.yul\":8843:8873   */\n      tag_249\n        /* \"#utility.yul\":8861:8872   */\n      dup2\n        /* \"#utility.yul\":8843:8873   */\n      tag_98\n      jump\t// in\n    tag_249:\n        /* \"#utility.yul\":8832:8873   */\n      swap2\n      pop\n        /* \"#utility.yul\":9022:9023   */\n      dup3\n        /* \"#utility.yul\":9013:9020   */\n      dup3\n        /* \"#utility.yul\":9009:9024   */\n      div\n        /* \"#utility.yul\":9006:9007   */\n      dup5\n        /* \"#utility.yul\":9003:9025   */\n      eq\n        /* \"#utility.yul\":8983:8984   */\n      dup4\n        /* \"#utility.yul\":8976:8985   */\n      iszero\n        /* \"#utility.yul\":8956:9039   */\n      or\n        /* \"#utility.yul\":8933:9072   */\n      tag_250\n      jumpi\n        /* \"#utility.yul\":9052:9070   */\n      tag_251\n      tag_127\n      jump\t// in\n    tag_251:\n        /* \"#utility.yul\":8933:9072   */\n    tag_250:\n        /* \"#utility.yul\":8717:9079   */\n      pop\n        /* \"#utility.yul\":8669:9079   */\n      swap3\n      swap2\n      pop\n      pop\n      jump\t// out\n        /* \"#utility.yul\":9085:9265   */\n    tag_128:\n        /* \"#utility.yul\":9133:9210   */\n      0x4e487b7100000000000000000000000000000000000000000000000000000000\n        /* \"#utility.yul\":9130:9131   */\n      0x00\n        /* \"#utility.yul\":9123:9211   */\n      mstore\n        /* \"#utility.yul\":9230:9234   */\n      0x12\n        /* \"#utility.yul\":9227:9228   */\n      0x04\n        /* \"#utility.yul\":9220:9235   */\n      mstore\n        /* \"#utility.yul\":9254:9258   */\n      0x24\n        /* \"#utility.yul\":9251:9252   */\n      0x00\n        /* \"#utility.yul\":9244:9259   */\n      revert\n        /* \"#utility.yul\":9271:9456   */\n    tag_65:\n        /* \"#utility.yul\":9311:9312   */\n      0x00\n        /* \"#utility.yul\":9328:9348   */\n      tag_254\n        /* \"#utility.yul\":9346:9347   */\n      dup3\n        /* \"#utility.yul\":9328:9348   */\n      tag_98\n      jump\t// in\n    tag_254:\n        /* \"#utility.yul\":9323:9348   */\n      swap2\n      pop\n        /* \"#utility.yul\":9362:9382   */\n      tag_255\n        /* \"#utility.yul\":9380:9381   */\n      dup4\n        /* \"#utility.yul\":9362:9382   */\n      tag_98\n      jump\t// in\n    tag_255:\n        /* \"#utility.yul\":9357:9382   */\n      swap3\n      pop\n        /* \"#utility.yul\":9401:9402   */\n      dup3\n        /* \"#utility.yul\":9391:9426   */\n      tag_256\n      jumpi\n        /* \"#utility.yul\":9406:9424   */\n      tag_257\n      tag_128\n      jump\t// in\n    tag_257:\n        /* \"#utility.yul\":9391:9426   */\n    tag_256:\n        /* \"#utility.yul\":9448:9449   */\n      dup3\n        /* \"#utility.yul\":9445:9446   */\n      dup3\n        /* \"#utility.yul\":9441:9450   */\n      div\n        /* \"#utility.yul\":9436:9450   */\n      swap1\n      pop\n        /* \"#utility.yul\":9271:9456   */\n      swap3\n      swap2\n      pop\n      pop\n      jump\t// out\n        /* \"#utility.yul\":9462:9642   */\n    tag_129:\n        /* \"#utility.yul\":9510:9587   */\n      0x4e487b7100000000000000000000000000000000000000000000000000000000\n        /* \"#utility.yul\":9507:9508   */\n      0x00\n        /* \"#utility.yul\":9500:9588   */\n      mstore\n        /* \"#utility.yul\":9607:9611   */\n      0x22\n        /* \"#utility.yul\":9604:9605   */\n      0x04\n        /* \"#utility.yul\":9597:9612   */\n      mstore\n        /* \"#utility.yul\":9631:9635   */\n      0x24\n        /* \"#utility.yul\":9628:9629   */\n      0x00\n        /* \"#utility.yul\":9621:9636   */\n      revert\n        /* \"#utility.yul\":9648:9968   */\n    tag_72:\n        /* \"#utility.yul\":9692:9698   */\n      0x00\n        /* \"#utility.yul\":9729:9730   */\n      0x02\n        /* \"#utility.yul\":9723:9727   */\n      dup3\n        /* \"#utility.yul\":9719:9731   */\n      div\n        /* \"#utility.yul\":9709:9731   */\n      swap1\n      pop\n        /* \"#utility.yul\":9776:9777   */\n      0x01\n        /* \"#utility.yul\":9770:9774   */\n      dup3\n        /* \"#utility.yul\":9766:9778   */\n      and\n        /* \"#utility.yul\":9797:9815   */\n      dup1\n        /* \"#utility.yul\":9787:9868   */\n      tag_260\n      jumpi\n        /* \"#utility.yul\":9853:9857   */\n      0x7f\n        /* \"#utility.yul\":9845:9851   */\n      dup3\n        /* \"#utility.yul\":9841:9858   */\n      and\n        /* \"#utility.yul\":9831:9858   */\n      swap2\n      pop\n        /* \"#utility.yul\":9787:9868   */\n    tag_260:\n        /* \"#utility.yul\":9915:9917   */\n      0x20\n        /* \"#utility.yul\":9907:9913   */\n      dup3\n        /* \"#utility.yul\":9904:9918   */\n      lt\n        /* \"#utility.yul\":9884:9902   */\n      dup2\n        /* \"#utility.yul\":9881:9919   */\n      sub\n        /* \"#utility.yul\":9878:9962   */\n      tag_261\n      jumpi\n        /* \"#utility.yul\":9934:9952   */\n      tag_262\n      tag_129\n      jump\t// in\n    tag_262:\n        /* \"#utility.yul\":9878:9962   */\n    tag_261:\n        /* \"#utility.yul\":9699:9968   */\n      pop\n        /* \"#utility.yul\":9648:9968   */\n      swap2\n      swap1\n      pop\n      jump\t// out\n        /* \"#utility.yul\":9974:10115   */\n    tag_130:\n        /* \"#utility.yul\":10023:10027   */\n      0x00\n        /* \"#utility.yul\":10046:10049   */\n      dup2\n        /* \"#utility.yul\":10038:10049   */\n      swap1\n      pop\n        /* \"#utility.yul\":10069:10072   */\n      dup2\n        /* \"#utility.yul\":10066:10067   */\n      0x00\n        /* \"#utility.yul\":10059:10073   */\n      mstore\n        /* \"#utility.yul\":10103:10107   */\n      0x20\n        /* \"#utility.yul\":10100:10101   */\n      0x00\n        /* \"#utility.yul\":10090:10108   */\n      keccak256\n        /* \"#utility.yul\":10082:10108   */\n      swap1\n      pop\n        /* \"#utility.yul\":9974:10115   */\n      swap2\n      swap1\n      pop\n      jump\t// out\n        /* \"#utility.yul\":10121:10214   */\n    tag_131:\n        /* \"#utility.yul\":10158:10164   */\n      0x00\n        /* \"#utility.yul\":10205:10207   */\n      0x20\n        /* \"#utility.yul\":10200:10202   */\n      0x1f\n        /* \"#utility.yul\":10193:10198   */\n      dup4\n        /* \"#utility.yul\":10189:10203   */\n      add\n        /* \"#utility.yul\":10185:10208   */\n      div\n        /* \"#utility.yul\":10175:10208   */\n      swap1\n      pop\n        /* \"#utility.yul\":10121:10214   */\n      swap2\n      swap1\n      pop\n      jump\t// out\n        /* \"#utility.yul\":10220:10327   */\n    tag_132:\n        /* \"#utility.yul\":10264:10272   */\n      0x00\n        /* \"#utility.yul\":10314:10319   */\n      dup3\n        /* \"#utility.yul\":10308:10312   */\n      dup3\n        /* \"#utility.yul\":10304:10320   */\n      shl\n        /* \"#utility.yul\":10283:10320   */\n      swap1\n      pop\n        /* \"#utility.yul\":10220:10327   */\n      swap3\n      swap2\n      pop\n      pop\n      jump\t// out\n        /* \"#utility.yul\":10333:10726   */\n    tag_133:\n        /* \"#utility.yul\":10402:10408   */\n      0x00\n        /* \"#utility.yul\":10452:10453   */\n      0x08\n        /* \"#utility.yul\":10440:10450   */\n      dup4\n        /* \"#utility.yul\":10436:10454   */\n      mul\n        /* \"#utility.yul\":10475:10572   */\n      tag_267\n        /* \"#utility.yul\":10505:10571   */\n      0xffffffffffffffffffffffffffffffffffffffffffffffffffffffffffffffff\n        /* \"#utility.yul\":10494:10503   */\n      dup3\n        /* \"#utility.yul\":10475:10572   */\n      tag_132\n      jump\t// in\n    tag_267:\n        /* \"#utility.yul\":10593:10632   */\n      tag_268\n        /* \"#utility.yul\":10623:10631   */\n      dup7\n        /* \"#utility.yul\":10612:10621   */\n      dup4\n        /* \"#utility.yul\":10593:10632   */\n      tag_132\n      jump\t// in\n    tag_268:\n        /* \"#utility.yul\":10581:10632   */\n      swap6\n      pop\n        /* \"#utility.yul\":10665:10669   */\n      dup1\n        /* \"#utility.yul\":10661:10670   */\n      not\n        /* \"#utility.yul\":10654:10659   */\n      dup5\n        /* \"#utility.yul\":10650:10671   */\n      and\n        /* \"#utility.yul\":10641:10671   */\n      swap4\n      pop\n        /* \"#utility.yul\":10714:10718   */\n      dup1\n        /* \"#utility.yul\":10704:10712   */\n      dup7\n        /* \"#utility.yul\":10700:10719   */\n      and\n        /* \"#utility.yul\":10693:10698   */\n      dup5\n        /* \"#utility.yul\":10690:10720   */\n      or\n        /* \"#utility.yul\":10680:10720   */\n      swap3\n      pop\n        /* \"#utility.yul\":10409:10726   */\n      pop\n      pop\n        /* \"#utility.yul\":10333:10726   */\n      swap4\n      swap3\n      pop\n      pop\n      pop\n      jump\t// out\n        /* \"#utility.yul\":10732:10792   */\n    tag_134:\n        /* \"#utility.yul\":10760:10763   */\n      0x00\n        /* \"#utility.yul\":10781:10786   */\n      dup2\n        /* \"#utility.yul\":10774:10786   */\n      swap1\n      pop\n        /* \"#utility.yul\":10732:10792   */\n      swap2\n      swap1\n      pop\n      jump\t// out\n        /* \"#utility.yul\":10798:10940   */\n    tag_135:\n        /* \"#utility.yul\":10848:10857   */\n      0x00\n        /* \"#utility.yul\":10881:10934   */\n      tag_271\n        /* \"#utility.yul\":10899:10933   */\n      tag_272\n        /* \"#utility.yul\":10908:10932   */\n      tag_273\n        /* \"#utility.yul\":10926:10931   */\n      dup5\n        /* \"#utility.yul\":10908:10932   */\n      tag_98\n      jump\t// in\n    tag_273:\n        /* \"#utility.yul\":10899:10933   */\n      tag_134\n      jump\t// in\n    tag_272:\n        /* \"#utility.yul\":10881:10934   */\n      tag_98\n      jump\t// in\n    tag_271:\n        /* \"#utility.yul\":10868:10934   */\n      swap1\n      pop\n        /* \"#utility.yul\":10798:10940   */\n      swap2\n      swap1\n      pop\n      jump\t// out\n        /* \"#utility.yul\":10946:11021   */\n    tag_136:\n        /* \"#utility.yul\":10989:10992   */\n      0x00\n        /* \"#utility.yul\":11010:11015   */\n      dup2\n        /* \"#utility.yul\":11003:11015   */\n      swap1\n      pop\n        /* \"#utility.yul\":10946:11021   */\n      swap2\n      swap1\n      pop\n      jump\t// out\n        /* \"#utility.yul\":11027:11296   */\n    tag_137:\n        /* \"#utility.yul\":11137:11176   */\n      tag_276\n        /* \"#utility.yul\":11168:11175   */\n      dup4\n        /* \"#utility.yul\":11137:11176   */\n      tag_135\n      jump\t// in\n    tag_276:\n        /* \"#utility.yul\":11198:11289   */\n      tag_277\n        /* \"#utility.yul\":11247:11288   */\n      tag_278\n        /* \"#utility.yul\":11271:11287   */\n      dup3\n        /* \"#utility.yul\":11247:11288   */\n      tag_136\n      jump\t// in\n    tag_278:\n        /* \"#utility.yul\":11239:11245   */\n      dup5\n        /* \"#utility.yul\":11232:11236   */\n      dup5\n        /* \"#utility.yul\":11226:11237   */\n      sload\n        /* \"#utility.yul\":11198:11289   */\n      tag_133\n      jump\t// in\n    tag_277:\n        /* \"#utility.yul\":11192:11196   */\n      dup3\n        /* \"#utility.yul\":11185:11290   */\n      sstore\n        /* \"#utility.yul\":11103:11296   */\n      pop\n        /* \"#utility.yul\":11027:11296   */\n      pop\n      pop\n      pop\n      jump\t// out\n        /* \"#utility.yul\":11302:11375   */\n    tag_138:\n        /* \"#utility.yul\":11347:11350   */\n      0x00\n        /* \"#utility.yul\":11302:11375   */\n      swap1\n      jump\t// out\n        /* \"#utility.yul\":11381:11570   */\n    tag_139:\n        /* \"#utility.yul\":11458:11490   */\n      tag_281\n      tag_138\n      jump\t// in\n    tag_281:\n        /* \"#utility.yul\":11499:11564   */\n      tag_282\n        /* \"#utility.yul\":11557:11563   */\n      dup2\n        /* \"#utility.yul\":11549:11555   */\n      dup5\n        /* \"#utility.yul\":11543:11547   */\n      dup5\n        /* \"#utility.yul\":11499:11564   */\n      tag_137\n      jump\t// in\n    tag_282:\n        /* \"#utility.yul\":11434:11570   */\n      pop\n        /* \"#utility.yul\":11381:11570   */\n      pop\n      pop\n      jump\t// out\n        /* \"#utility.yul\":11576:11762   */\n    tag_140:\n        /* \"#utility.yul\":11636:11756   */\n    tag_284:\n        /* \"#utility.yul\":11653:11656   */\n      dup2\n        /* \"#utility.yul\":11646:11651   */\n      dup2\n        /* \"#utility.yul\":11643:11657   */\n      lt\n        /* \"#utility.yul\":11636:11756   */\n      iszero\n      tag_286\n      jumpi\n        /* \"#utility.yul\":11707:11746   */\n      tag_287\n        /* \"#utility.yul\":11744:11745   */\n      0x00\n        /* \"#utility.yul\":11737:11742   */\n      dup3\n        /* \"#utility.yul\":11707:11746   */\n      tag_139\n      jump\t// in\n    tag_287:\n        /* \"#utility.yul\":11680:11681   */\n      0x01\n        /* \"#utility.yul\":11673:11678   */\n      dup2\n        /* \"#utility.yul\":11669:11682   */\n      add\n        /* \"#utility.yul\":11660:11682   */\n      swap1\n      pop\n        /* \"#utility.yul\":11636:11756   */\n      jump(tag_284)\n    tag_286:\n        /* \"#utility.yul\":11576:11762   */\n      pop\n      pop\n      jump\t// out\n        /* \"#utility.yul\":11768:12311   */\n    tag_141:\n        /* \"#utility.yul\":11869:11871   */\n      0x1f\n        /* \"#utility.yul\":11864:11867   */\n      dup3\n        /* \"#utility.yul\":11861:11872   */\n      gt\n        /* \"#utility.yul\":11858:12304   */\n      iszero\n      tag_289\n      jumpi\n        /* \"#utility.yul\":11903:11941   */\n      tag_290\n        /* \"#utility.yul\":11935:11940   */\n      dup2\n        /* \"#utility.yul\":11903:11941   */\n      tag_130\n      jump\t// in\n    tag_290:\n        /* \"#utility.yul\":11987:12016   */\n      tag_291\n        /* \"#utility.yul\":12005:12015   */\n      dup5\n        /* \"#utility.yul\":11987:12016   */\n      tag_131\n      jump\t// in\n    tag_291:\n        /* \"#utility.yul\":11977:11985   */\n      dup2\n        /* \"#utility.yul\":11973:12017   */\n      add\n        /* \"#utility.yul\":12170:12172   */\n      0x20\n        /* \"#utility.yul\":12158:12168   */\n      dup6\n        /* \"#utility.yul\":12155:12173   */\n      lt\n        /* \"#utility.yul\":12152:12201   */\n      iszero\n      tag_292\n      jumpi\n        /* \"#utility.yul\":12191:12199   */\n      dup2\n        /* \"#utility.yul\":12176:12199   */\n      swap1\n      pop\n        /* \"#utility.yul\":12152:12201   */\n    tag_292:\n        /* \"#utility.yul\":12214:12294   */\n      tag_293\n        /* \"#utility.yul\":12270:12292   */\n      tag_294\n        /* \"#utility.yul\":12288:12291   */\n      dup6\n        /* \"#utility.yul\":12270:12292   */\n      tag_131\n      jump\t// in\n    tag_294:\n        /* \"#utility.yul\":12260:12268   */\n      dup4\n        /* \"#utility.yul\":12256:12293   */\n      add\n        /* \"#utility.yul\":12243:12254   */\n      dup3\n        /* \"#utility.yul\":12214:12294   */\n      tag_140\n      jump\t// in\n    tag_293:\n        /* \"#utility.yul\":11873:12304   */\n      pop\n      pop\n        /* \"#utility.yul\":11858:12304   */\n    tag_289:\n        /* \"#utility.yul\":11768:12311   */\n      pop\n      pop\n      pop\n      jump\t// out\n        /* \"#utility.yul\":12317:12434   */\n    tag_142:\n        /* \"#utility.yul\":12371:12379   */\n      0x00\n        /* \"#utility.yul\":12421:12426   */\n      dup3\n        /* \"#utility.yul\":12415:12419   */\n      dup3\n        /* \"#utility.yul\":12411:12427   */\n      shr\n        /* \"#utility.yul\":12390:12427   */\n      swap1\n      pop\n        /* \"#utility.yul\":12317:12434   */\n      swap3\n      swap2\n      pop\n      pop\n      jump\t// out\n        /* \"#utility.yul\":12440:12609   */\n    tag_143:\n        /* \"#utility.yul\":12484:12490   */\n      0x00\n        /* \"#utility.yul\":12517:12568   */\n      tag_297\n        /* \"#utility.yul\":12565:12566   */\n      0x00\n        /* \"#utility.yul\":12561:12567   */\n      not\n        /* \"#utility.yul\":12553:12558   */\n      dup5\n        /* \"#utility.yul\":12550:12551   */\n      0x08\n        /* \"#utility.yul\":12546:12559   */\n      mul\n        /* \"#utility.yul\":12517:12568   */\n      tag_142\n      jump\t// in\n    tag_297:\n        /* \"#utility.yul\":12513:12569   */\n      not\n        /* \"#utility.yul\":12598:12602   */\n      dup1\n        /* \"#utility.yul\":12592:12596   */\n      dup4\n        /* \"#utility.yul\":12588:12603   */\n      and\n        /* \"#utility.yul\":12578:12603   */\n      swap2\n      pop\n        /* \"#utility.yul\":12491:12609   */\n      pop\n        /* \"#utility.yul\":12440:12609   */\n      swap3\n      swap2\n      pop\n      pop\n      jump\t// out\n        /* \"#utility.yul\":12614:12909   */\n    tag_144:\n        /* \"#utility.yul\":12690:12694   */\n      0x00\n        /* \"#utility.yul\":12836:12865   */\n      tag_299\n        /* \"#utility.yul\":12861:12864   */\n      dup4\n        /* \"#utility.yul\":12855:12859   */\n      dup4\n        /* \"#utility.yul\":12836:12865   */\n      tag_143\n      jump\t// in\n    tag_299:\n        /* \"#utility.yul\":12828:12865   */\n      swap2\n      pop\n        /* \"#utility.yul\":12898:12901   */\n      dup3\n        /* \"#utility.yul\":12895:12896   */\n      0x02\n        /* \"#utility.yul\":12891:12902   */\n      mul\n        /* \"#utility.yul\":12885:12889   */\n      dup3\n        /* \"#utility.yul\":12882:12903   */\n      or\n        /* \"#utility.yul\":12874:12903   */\n      swap1\n      pop\n        /* \"#utility.yul\":12614:12909   */\n      swap3\n      swap2\n      pop\n      pop\n      jump\t// out\n        /* \"#utility.yul\":12914:14309   */\n    tag_82:\n        /* \"#utility.yul\":13031:13068   */\n      tag_301\n        /* \"#utility.yul\":13064:13067   */\n      dup3\n        /* \"#utility.yul\":13031:13068   */\n      tag_108\n      jump\t// in\n    tag_301:\n        /* \"#utility.yul\":13133:13151   */\n      0xffffffffffffffff\n        /* \"#utility.yul\":13125:13131   */\n      dup2\n        /* \"#utility.yul\":13122:13152   */\n      gt\n        /* \"#utility.yul\":13119:13175   */\n      iszero\n      tag_302\n      jumpi\n        /* \"#utility.yul\":13155:13173   */\n      tag_303\n      tag_118\n      jump\t// in\n    tag_303:\n        /* \"#utility.yul\":13119:13175   */\n    tag_302:\n        /* \"#utility.yul\":13199:13237   */\n      tag_304\n        /* \"#utility.yul\":13231:13235   */\n      dup3\n        /* \"#utility.yul\":13225:13236   */\n      sload\n        /* \"#utility.yul\":13199:13237   */\n      tag_72\n      jump\t// in\n    tag_304:\n        /* \"#utility.yul\":13284:13351   */\n      tag_305\n        /* \"#utility.yul\":13344:13350   */\n      dup3\n        /* \"#utility.yul\":13336:13342   */\n      dup3\n        /* \"#utility.yul\":13330:13334   */\n      dup6\n        /* \"#utility.yul\":13284:13351   */\n      tag_141\n      jump\t// in\n    tag_305:\n        /* \"#utility.yul\":13378:13379   */\n      0x00\n        /* \"#utility.yul\":13402:13406   */\n      0x20\n        /* \"#utility.yul\":13389:13406   */\n      swap1\n      pop\n        /* \"#utility.yul\":13434:13436   */\n      0x1f\n        /* \"#utility.yul\":13426:13432   */\n      dup4\n        /* \"#utility.yul\":13423:13437   */\n      gt\n        /* \"#utility.yul\":13451:13452   */\n      0x01\n        /* \"#utility.yul\":13446:14064   */\n      dup2\n      eq\n      tag_307\n      jumpi\n        /* \"#utility.yul\":14108:14109   */\n      0x00\n        /* \"#utility.yul\":14125:14131   */\n      dup5\n        /* \"#utility.yul\":14122:14199   */\n      iszero\n      tag_308\n      jumpi\n        /* \"#utility.yul\":14174:14183   */\n      dup3\n        /* \"#utility.yul\":14169:14172   */\n      dup8\n        /* \"#utility.yul\":14165:14184   */\n      add\n        /* \"#utility.yul\":14159:14185   */\n      mload\n        /* \"#utility.yul\":14150:14185   */\n      swap1\n      pop\n        /* \"#utility.yul\":14122:14199   */\n    tag_308:\n        /* \"#utility.yul\":14225:14292   */\n      tag_309\n        /* \"#utility.yul\":14285:14291   */\n      dup6\n        /* \"#utility.yul\":14278:14283   */\n      dup3\n        /* \"#utility.yul\":14225:14292   */\n      tag_144\n      jump\t// in\n    tag_309:\n        /* \"#utility.yul\":14219:14223   */\n      dup7\n        /* \"#utility.yul\":14212:14293   */\n      sstore\n        /* \"#utility.yul\":14081:14303   */\n      pop\n        /* \"#utility.yul\":13416:14303   */\n      jump(tag_306)\n        /* \"#utility.yul\":13446:14064   */\n    tag_307:\n        /* \"#utility.yul\":13498:13502   */\n      0x1f\n        /* \"#utility.yul\":13494:13503   */\n      not\n        /* \"#utility.yul\":13486:13492   */\n      dup5\n        /* \"#utility.yul\":13482:13504   */\n      and\n        /* \"#utility.yul\":13532:13569   */\n      tag_310\n        /* \"#utility.yul\":13564:13568   */\n      dup7\n        /* \"#utility.yul\":13532:13569   */\n      tag_130\n      jump\t// in\n    tag_310:\n        /* \"#utility.yul\":13591:13592   */\n      0x00\n        /* \"#utility.yul\":13605:13813   */\n    tag_311:\n        /* \"#utility.yul\":13619:13626   */\n      dup3\n        /* \"#utility.yul\":13616:13617   */\n      dup2\n        /* \"#utility.yul\":13613:13627   */\n      lt\n        /* \"#utility.yul\":13605:13813   */\n      iszero\n      tag_313\n      jumpi\n        /* \"#utility.yul\":13698:13707   */\n      dup5\n        /* \"#utility.yul\":13693:13696   */\n      dup10\n        /* \"#utility.yul\":13689:13708   */\n      add\n        /* \"#utility.yul\":13683:13709   */\n      mload\n        /* \"#utility.yul\":13675:13681   */\n      dup3\n        /* \"#utility.yul\":13668:13710   */\n      sstore\n        /* \"#utility.yul\":13749:13750   */\n      0x01\n        /* \"#utility.yul\":13741:13747   */\n      dup3\n        /* \"#utility.yul\":13737:13751   */\n      add\n        /* \"#utility.yul\":13727:13751   */\n      swap2\n      pop\n        /* \"#utility.yul\":13796:13798   */\n      0x20\n        /* \"#utility.yul\":13785:13794   */\n      dup6\n        /* \"#utility.yul\":13781:13799   */\n      add\n        /* \"#utility.yul\":13768:13799   */\n      swap5\n      pop\n        /* \"#utility.yul\":13642:13646   */\n      0x20\n        /* \"#utility.yul\":13639:13640   */\n      dup2\n        /* \"#utility.yul\":13635:13647   */\n      add\n        /* \"#utility.yul\":13630:13647   */\n      swap1\n      pop\n        /* \"#utility.yul\":13605:13813   */\n      jump(tag_311)\n    tag_313:\n        /* \"#utility.yul\":13841:13847   */\n      dup7\n        /* \"#utility.yul\":13832:13839   */\n      dup4\n        /* \"#utility.yul\":13829:13848   */\n      lt\n        /* \"#utility.yul\":13826:14005   */\n      iszero\n      tag_314\n      jumpi\n        /* \"#utility.yul\":13899:13908   */\n      dup5\n        /* \"#utility.yul\":13894:13897   */\n      dup10\n        /* \"#utility.yul\":13890:13909   */\n      add\n        /* \"#utility.yul\":13884:13910   */\n      mload\n        /* \"#utility.yul\":13942:13990   */\n      tag_315\n        /* \"#utility.yul\":13984:13988   */\n      0x1f\n        /* \"#utility.yul\":13976:13982   */\n      dup10\n        /* \"#utility.yul\":13972:13989   */\n      and\n        /* \"#utility.yul\":13961:13970   */\n      dup3\n        /* \"#utility.yul\":13942:13990   */\n      tag_143\n      jump\t// in\n    tag_315:\n        /* \"#utility.yul\":13934:13940   */\n      dup4\n        /* \"#utility.yul\":13927:13991   */\n      sstore\n        /* \"#utility.yul\":13849:14005   */\n      pop\n        /* \"#utility.yul\":13826:14005   */\n    tag_314:\n        /* \"#utility.yul\":14051:14052   */\n      0x01\n        /* \"#utility.yul\":14047:14048   */\n      0x02\n        /* \"#utility.yul\":14039:14045   */\n      dup9\n        /* \"#utility.yul\":14035:14049   */\n      mul\n        /* \"#utility.yul\":14031:14053   */\n      add\n        /* \"#utility.yul\":14025:14029   */\n      dup9\n        /* \"#utility.yul\":14018:14054   */\n      sstore\n        /* \"#utility.yul\":13453:14064   */\n      pop\n      pop\n      pop\n        /* \"#utility.yul\":13416:14303   */\n    tag_306:\n      pop\n        /* \"#utility.yul\":13006:14309   */\n      pop\n      pop\n      pop\n        /* \"#utility.yul\":12914:14309   */\n      pop\n      pop\n      jump\t// out\n        /* \"#utility.yul\":14315:14548   */\n    tag_86:\n        /* \"#utility.yul\":14354:14357   */\n      0x00\n        /* \"#utility.yul\":14377:14401   */\n      tag_317\n        /* \"#utility.yul\":14395:14400   */\n      dup3\n        /* \"#utility.yul\":14377:14401   */\n      tag_98\n      jump\t// in\n    tag_317:\n        /* \"#utility.yul\":14368:14401   */\n      swap2\n      pop\n        /* \"#utility.yul\":14423:14489   */\n      0xffffffffffffffffffffffffffffffffffffffffffffffffffffffffffffffff\n        /* \"#utility.yul\":14416:14421   */\n      dup3\n        /* \"#utility.yul\":14413:14490   */\n      sub\n        /* \"#utility.yul\":14410:14513   */\n      tag_318\n      jumpi\n        /* \"#utility.yul\":14493:14511   */\n      tag_319\n      tag_127\n      jump\t// in\n    tag_319:\n        /* \"#utility.yul\":14410:14513   */\n    tag_318:\n        /* \"#utility.yul\":14540:14541   */\n      0x01\n        /* \"#utility.yul\":14533:14538   */\n      dup3\n        /* \"#utility.yul\":14529:14542   */\n      add\n        /* \"#utility.yul\":14522:14542   */\n      swap1\n      pop\n        /* \"#utility.yul\":14315:14548   */\n      swap2\n      swap1\n      pop\n      jump\t// out\n\n    auxdata: 0xa26469706673582212201b408af5d95879aeabc94925543b88fa12d0549f57da1c643375256395c5a86564736f6c63430008110033\n}\n","bytecode":{"linkReferences":{},"object":"60806040523480156200001157600080fd5b50604051620011e1380380620011e183398181016040528101906200003791906200012c565b80600160006101000a81548173ffffffffffffffffffffffffffffffffffffffff021916908373ffffffffffffffffffffffffffffffffffffffff16021790555081600281905550505062000173565b600080fd5b6000819050919050565b620000a1816200008c565b8114620000ad57600080fd5b50565b600081519050620000c18162000096565b92915050565b600073ffffffffffffffffffffffffffffffffffffffff82169050919050565b6000620000f482620000c7565b9050919050565b6200010681620000e7565b81146200011257600080fd5b50565b6000815190506200012681620000fb565b92915050565b6000806040838503121562000146576200014562000087565b5b60006200015685828601620000b0565b9250506020620001698582860162000115565b9150509250929050565b61105e80620001836000396000f3fe6080604052600436106100865760003560e01c806382fde0931161005957806382fde093146101505780638a9cfd551461017b578063937e09b1146101a4578063d7bb99ba146101cf578063d7d1bbdb146101d957610086565b8063034410061461008b5780630a144391146100a7578063481c6a75146100e457806381d12c581461010f575b600080fd5b6100a560048036038101906100a091906107e5565b610202565b005b3480156100b357600080fd5b506100ce60048036038101906100c99190610870565b610357565b6040516100db91906108b8565b60405180910390f35b3480156100f057600080fd5b506100f9610377565b60405161010691906108e2565b60405180910390f35b34801561011b57600080fd5b50610136600480360381019061013191906107e5565b61039d565b6040516101479594939291906109bd565b60405180910390f35b34801561015c57600080fd5b50610165610498565b6040516101729190610a17565b60405180910390f35b34801561018757600080fd5b506101a2600480360381019061019d9190610b93565b61049e565b005b3480156101b057600080fd5b506101b96105a6565b6040516101c69190610a17565b60405180910390f35b6101d76105ac565b005b3480156101e557600080fd5b5061020060048036038101906101fb91906107e5565b61062d565b005b600160009054906101000a900473ffffffffffffffffffffffffffffffffffffffff1673ffffffffffffffffffffffffffffffffffffffff163373ffffffffffffffffffffffffffffffffffffffff161461025c57600080fd5b600080828154811061027157610270610c02565b5b906000526020600020906005020190508060020160149054906101000a900460ff161561029d57600080fd5b600a60076004546102ae9190610c60565b6102b89190610cd1565b8160030154116102c757600080fd5b8060020160009054906101000a900473ffffffffffffffffffffffffffffffffffffffff1673ffffffffffffffffffffffffffffffffffffffff166108fc82600101549081150290604051600060405180830381858888f19350505050158015610335573d6000803e3d6000fd5b5060018160020160146101000a81548160ff0219169083151502179055505050565b60036020528060005260406000206000915054906101000a900460ff1681565b600160009054906101000a900473ffffffffffffffffffffffffffffffffffffffff1681565b600081815481106103ad57600080fd5b90600052602060002090600502016000915090508060000180546103d090610d31565b80601f01602080910402602001604051908101604052809291908181526020018280546103fc90610d31565b80156104495780601f1061041e57610100808354040283529160200191610449565b820191906000526020600020905b81548152906001019060200180831161042c57829003601f168201915b5050505050908060010154908060020160009054906101000a900473ffffffffffffffffffffffffffffffffffffffff16908060020160149054906101000a900460ff16908060030154905085565b60045481565b600160009054906101000a900473ffffffffffffffffffffffffffffffffffffffff1673ffffffffffffffffffffffffffffffffffffffff163373ffffffffffffffffffffffffffffffffffffffff16146104f857600080fd5b60008060018160018154018082558091505003906000526020600020906005020190508381600001908161052c9190610f0e565b50828160010181905550818160020160006101000a81548173ffffffffffffffffffffffffffffffffffffffff021916908373ffffffffffffffffffffffffffffffffffffffff16021790555060008160020160146101000a81548160ff0219169083151502179055506000816003018190555050505050565b60025481565b6002543410156105bb57600080fd5b6001600360003373ffffffffffffffffffffffffffffffffffffffff1673ffffffffffffffffffffffffffffffffffffffff16815260200190815260200160002060006101000a81548160ff0219169083151502179055506004600081548092919061062690610fe0565b9190505550565b600080828154811061064257610641610c02565b5b90600052602060002090600502019050600360003373ffffffffffffffffffffffffffffffffffffffff1673ffffffffffffffffffffffffffffffffffffffff16815260200190815260200160002060009054906101000a900460ff166106a857600080fd5b600015158160020160149054906101000a900460ff161515146106ca57600080fd5b8060040160003373ffffffffffffffffffffffffffffffffffffffff1673ffffffffffffffffffffffffffffffffffffffff16815260200190815260200160002060009054906101000a900460ff161561072357600080fd5b80600301600081548092919061073890610fe0565b919050555060018160040160003373ffffffffffffffffffffffffffffffffffffffff1673ffffffffffffffffffffffffffffffffffffffff16815260200190815260200160002060006101000a81548160ff0219169083151502179055505050565b6000604051905090565b600080fd5b600080fd5b6000819050919050565b6107c2816107af565b81146107cd57600080fd5b50565b6000813590506107df816107b9565b92915050565b6000602082840312156107fb576107fa6107a5565b5b6000610809848285016107d0565b91505092915050565b600073ffffffffffffffffffffffffffffffffffffffff82169050919050565b600061083d82610812565b9050919050565b61084d81610832565b811461085857600080fd5b50565b60008135905061086a81610844565b92915050565b600060208284031215610886576108856107a5565b5b60006108948482850161085b565b91505092915050565b60008115159050919050565b6108b28161089d565b82525050565b60006020820190506108cd60008301846108a9565b92915050565b6108dc81610832565b82525050565b60006020820190506108f760008301846108d3565b92915050565b600081519050919050565b600082825260208201905092915050565b60005b8381101561093757808201518184015260208101905061091c565b60008484015250505050565b6000601f19601f8301169050919050565b600061095f826108fd565b6109698185610908565b9350610979818560208601610919565b61098281610943565b840191505092915050565b610996816107af565b82525050565b60006109a782610812565b9050919050565b6109b78161099c565b82525050565b600060a08201905081810360008301526109d78188610954565b90506109e6602083018761098d565b6109f360408301866109ae565b610a0060608301856108a9565b610a0d608083018461098d565b9695505050505050565b6000602082019050610a2c600083018461098d565b92915050565b600080fd5b600080fd5b7f4e487b7100000000000000000000000000000000000000000000000000000000600052604160045260246000fd5b610a7482610943565b810181811067ffffffffffffffff82111715610a9357610a92610a3c565b5b80604052505050565b6000610aa661079b565b9050610ab28282610a6b565b919050565b600067ffffffffffffffff821115610ad257610ad1610a3c565b5b610adb82610943565b9050602081019050919050565b82818337600083830152505050565b6000610b0a610b0584610ab7565b610a9c565b905082815260208101848484011115610b2657610b25610a37565b5b610b31848285610ae8565b509392505050565b600082601f830112610b4e57610b4d610a32565b5b8135610b5e848260208601610af7565b91505092915050565b610b708161099c565b8114610b7b57600080fd5b50565b600081359050610b8d81610b67565b92915050565b600080600060608486031215610bac57610bab6107a5565b5b600084013567ffffffffffffffff811115610bca57610bc96107aa565b5b610bd686828701610b39565b9350506020610be7868287016107d0565b9250506040610bf886828701610b7e565b9150509250925092565b7f4e487b7100000000000000000000000000000000000000000000000000000000600052603260045260246000fd5b7f4e487b7100000000000000000000000000000000000000000000000000000000600052601160045260246000fd5b6000610c6b826107af565b9150610c76836107af565b9250828202610c84816107af565b91508282048414831517610c9b57610c9a610c31565b5b5092915050565b7f4e487b7100000000000000000000000000000000000000000000000000000000600052601260045260246000fd5b6000610cdc826107af565b9150610ce7836107af565b925082610cf757610cf6610ca2565b5b828204905092915050565b7f4e487b7100000000000000000000000000000000000000000000000000000000600052602260045260246000fd5b60006002820490506001821680610d4957607f821691505b602082108103610d5c57610d5b610d02565b5b50919050565b60008190508160005260206000209050919050565b60006020601f8301049050919050565b600082821b905092915050565b600060088302610dc47fffffffffffffffffffffffffffffffffffffffffffffffffffffffffffffffff82610d87565b610dce8683610d87565b95508019841693508086168417925050509392505050565b6000819050919050565b6000610e0b610e06610e01846107af565b610de6565b6107af565b9050919050565b6000819050919050565b610e2583610df0565b610e39610e3182610e12565b848454610d94565b825550505050565b600090565b610e4e610e41565b610e59818484610e1c565b505050565b5b81811015610e7d57610e72600082610e46565b600181019050610e5f565b5050565b601f821115610ec257610e9381610d62565b610e9c84610d77565b81016020851015610eab578190505b610ebf610eb785610d77565b830182610e5e565b50505b505050565b600082821c905092915050565b6000610ee560001984600802610ec7565b1980831691505092915050565b6000610efe8383610ed4565b9150826002028217905092915050565b610f17826108fd565b67ffffffffffffffff811115610f3057610f2f610a3c565b5b610f3a8254610d31565b610f45828285610e81565b600060209050601f831160018114610f785760008415610f66578287015190505b610f708582610ef2565b865550610fd8565b601f198416610f8686610d62565b60005b82811015610fae57848901518255600182019150602085019450602081019050610f89565b86831015610fcb5784890151610fc7601f891682610ed4565b8355505b6001600288020188555050505b505050505050565b6000610feb826107af565b91507fffffffffffffffffffffffffffffffffffffffffffffffffffffffffffffffff820361101d5761101c610c31565b5b60018201905091905056fea26469706673582212201b408af5d95879aeabc94925543b88fa12d0549f57da1c643375256395c5a86564736f6c63430008110033","opcodes":"PUSH1 0x80 PUSH1 0x40 MSTORE CALLVALUE DUP1 ISZERO PUSH3 0x11 JUMPI PUSH1 0x0 DUP1 REVERT JUMPDEST POP PUSH1 0x40 MLOAD PUSH3 0x11E1 CODESIZE SUB DUP1 PUSH3 0x11E1 DUP4 CODECOPY DUP2 DUP2 ADD PUSH1 0x40 MSTORE DUP2 ADD SWAP1 PUSH3 0x37 SWAP2 SWAP1 PUSH3 0x12C JUMP JUMPDEST DUP1 PUSH1 0x1 PUSH1 0x0 PUSH2 0x100 EXP DUP2 SLOAD DUP2 PUSH20 0xFFFFFFFFFFFFFFFFFFFFFFFFFFFFFFFFFFFFFFFF MUL NOT AND SWAP1 DUP4 PUSH20 0xFFFFFFFFFFFFFFFFFFFFFFFFFFFFFFFFFFFFFFFF AND MUL OR SWAP1 SSTORE POP DUP2 PUSH1 0x2 DUP2 SWAP1 SSTORE POP POP POP PUSH3 0x173 JUMP JUMPDEST PUSH1 0x0 DUP1 REVERT JUMPDEST PUSH1 0x0 DUP2 SWAP1 POP SWAP2 SWAP1 POP JUMP JUMPDEST PUSH3 0xA1 DUP2 PUSH3 0x8C JUMP JUMPDEST DUP2 EQ PUSH3 0xAD JUMPI PUSH1 0x0 DUP1 REVERT JUMPDEST POP JUMP JUMPDEST PUSH1 0x0 DUP2 MLOAD SWAP1 POP PUSH3 0xC1 DUP2 PUSH3 0x96 JUMP JUMPDEST SWAP3 SWAP2 POP POP JUMP JUMPDEST PUSH1 0x0 PUSH20 0xFFFFFFFFFFFFFFFFFFFFFFFFFFFFFFFFFFFFFFFF DUP3 AND SWAP1 POP SWAP2 SWAP1 POP JUMP JUMPDEST PUSH1 0x0 PUSH3 0xF4 DUP3 PUSH3 0xC7 JUMP JUMPDEST SWAP1 POP SWAP2 SWAP1 POP JUMP JUMPDEST PUSH3 0x106 DUP2 PUSH3 0xE7 JUMP JUMPDEST DUP2 EQ PUSH3 0x112 JUMPI PUSH1 0x0 DUP1 REVERT JUMPDEST POP JUMP JUMPDEST PUSH1 0x0 DUP2 MLOAD SWAP1 POP PUSH3 0x126 DUP2 PUSH3 0xFB JUMP JUMPDEST SWAP3 SWAP2 POP POP JUMP JUMPDEST PUSH1 0x0 DUP1 PUSH1 0x40 DUP4 DUP6 SUB SLT ISZERO PUSH3 0x146 JUMPI PUSH3 0x145 PUSH3 0x87 JUMP JUMPDEST JUMPDEST PUSH1 0x0 PUSH3 0x156 DUP6 DUP3 DUP7 ADD PUSH3 0xB0 JUMP JUMPDEST SWAP3 POP POP PUSH1 0x20 PUSH3 0x169 DUP6 DUP3 DUP7 ADD PUSH3 0x115 JUMP JUMPDEST SWAP2 POP POP SWAP3 POP SWAP3 SWAP1 POP JUMP JUMPDEST PUSH2 0x105E DUP1 PUSH3 0x183 PUSH1 0x0 CODECOPY PUSH1 0x0 RETURN INVALID PUSH1 0x80 PUSH1 0x40 MSTORE PUSH1 0x4 CALLDATASIZE LT PUSH2 0x86 JUMPI PUSH1 0x0 CALLDATALOAD PUSH1 0xE0 SHR DUP1 PUSH4 0x82FDE093 GT PUSH2 0x59 JUMPI DUP1 PUSH4 0x82FDE093 EQ PUSH2 0x150 JUMPI DUP1 PUSH4 0x8A9CFD55 EQ PUSH2 0x17B JUMPI DUP1 PUSH4 0x937E09B1 EQ PUSH2 0x1A4 JUMPI DUP1 PUSH4 0xD7BB99BA EQ PUSH2 0x1CF JUMPI DUP1 PUSH4 0xD7D1BBDB EQ PUSH2 0x1D9 JUMPI PUSH2 0x86 JUMP JUMPDEST DUP1 PUSH4 0x3441006 EQ PUSH2 0x8B JUMPI DUP1 PUSH4 0xA144391 EQ PUSH2 0xA7 JUMPI DUP1 PUSH4 0x481C6A75 EQ PUSH2 0xE4 JUMPI DUP1 PUSH4 0x81D12C58 EQ PUSH2 0x10F JUMPI JUMPDEST PUSH1 0x0 DUP1 REVERT JUMPDEST PUSH2 0xA5 PUSH1 0x4 DUP1 CALLDATASIZE SUB DUP2 ADD SWAP1 PUSH2 0xA0 SWAP2 SWAP1 PUSH2 0x7E5 JUMP JUMPDEST PUSH2 0x202 JUMP JUMPDEST STOP JUMPDEST CALLVALUE DUP1 ISZERO PUSH2 0xB3 JUMPI PUSH1 0x0 DUP1 REVERT JUMPDEST POP PUSH2 0xCE PUSH1 0x4 DUP1 CALLDATASIZE SUB DUP2 ADD SWAP1 PUSH2 0xC9 SWAP2 SWAP1 PUSH2 0x870 JUMP JUMPDEST PUSH2 0x357 JUMP JUMPDEST PUSH1 0x40 MLOAD PUSH2 0xDB SWAP2 SWAP1 PUSH2 0x8B8 JUMP JUMPDEST PUSH1 0x40 MLOAD DUP1 SWAP2 SUB SWAP1 RETURN JUMPDEST CALLVALUE DUP1 ISZERO PUSH2 0xF0 JUMPI PUSH1 0x0 DUP1 REVERT JUMPDEST POP PUSH2 0xF9 PUSH2 0x377 JUMP JUMPDEST PUSH1 0x40 MLOAD PUSH2 0x106 SWAP2 SWAP1 PUSH2 0x8E2 JUMP JUMPDEST PUSH1 0x40 MLOAD DUP1 SWAP2 SUB SWAP1 RETURN JUMPDEST CALLVALUE DUP1 ISZERO PUSH2 0x11B JUMPI PUSH1 0x0 DUP1 REVERT JUMPDEST POP PUSH2 0x136 PUSH1 0x4 DUP1 CALLDATASIZE SUB DUP2 ADD SWAP1 PUSH2 0x131 SWAP2 SWAP1 PUSH2 0x7E5 JUMP JUMPDEST PUSH2 0x39D JUMP JUMPDEST PUSH1 0x40 MLOAD PUSH2 0x147 SWAP6 SWAP5 SWAP4 SWAP3 SWAP2 SWAP1 PUSH2 0x9BD JUMP JUMPDEST PUSH1 0x40 MLOAD DUP1 SWAP2 SUB SWAP1 RETURN JUMPDEST CALLVALUE DUP1 ISZERO PUSH2 0x15C JUMPI PUSH1 0x0 DUP1 REVERT JUMPDEST POP PUSH2 0x165 PUSH2 0x498 JUMP JUMPDEST PUSH1 0x40 MLOAD PUSH2 0x172 SWAP2 SWAP1 PUSH2 0xA17 JUMP JUMPDEST PUSH1 0x40 MLOAD DUP1 SWAP2 SUB SWAP1 RETURN JUMPDEST CALLVALUE DUP1 ISZERO PUSH2 0x187 JUMPI PUSH1 0x0 DUP1 REVERT JUMPDEST POP PUSH2 0x1A2 PUSH1 0x4 DUP1 CALLDATASIZE SUB DUP2 ADD SWAP1 PUSH2 0x19D SWAP2 SWAP1 PUSH2 0xB93 JUMP JUMPDEST PUSH2 0x49E JUMP JUMPDEST STOP JUMPDEST CALLVALUE DUP1 ISZERO PUSH2 0x1B0 JUMPI PUSH1 0x0 DUP1 REVERT JUMPDEST POP PUSH2 0x1B9 PUSH2 0x5A6 JUMP JUMPDEST PUSH1 0x40 MLOAD PUSH2 0x1C6 SWAP2 SWAP1 PUSH2 0xA17 JUMP JUMPDEST PUSH1 0x40 MLOAD DUP1 SWAP2 SUB SWAP1 RETURN JUMPDEST PUSH2 0x1D7 PUSH2 0x5AC JUMP JUMPDEST STOP JUMPDEST CALLVALUE DUP1 ISZERO PUSH2 0x1E5 JUMPI PUSH1 0x0 DUP1 REVERT JUMPDEST POP PUSH2 0x200 PUSH1 0x4 DUP1 CALLDATASIZE SUB DUP2 ADD SWAP1 PUSH2 0x1FB SWAP2 SWAP1 PUSH2 0x7E5 JUMP JUMPDEST PUSH2 0x62D JUMP JUMPDEST STOP JUMPDEST PUSH1 0x1 PUSH1 0x0 SWAP1 SLOAD SWAP1 PUSH2 0x100 EXP SWAP1 DIV PUSH20 0xFFFFFFFFFFFFFFFFFFFFFFFFFFFFFFFFFFFFFFFF AND PUSH20 0xFFFFFFFFFFFFFFFFFFFFFFFFFFFFFFFFFFFFFFFF AND CALLER PUSH20 0xFFFFFFFFFFFFFFFFFFFFFFFFFFFFFFFFFFFFFFFF AND EQ PUSH2 0x25C JUMPI PUSH1 0x0 DUP1 REVERT JUMPDEST PUSH1 0x0 DUP1 DUP3 DUP2 SLOAD DUP2 LT PUSH2 0x271 JUMPI PUSH2 0x270 PUSH2 0xC02 JUMP JUMPDEST JUMPDEST SWAP1 PUSH1 0x0 MSTORE PUSH1 0x20 PUSH1 0x0 KECCAK256 SWAP1 PUSH1 0x5 MUL ADD SWAP1 POP DUP1 PUSH1 0x2 ADD PUSH1 0x14 SWAP1 SLOAD SWAP1 PUSH2 0x100 EXP SWAP1 DIV PUSH1 0xFF AND ISZERO PUSH2 0x29D JUMPI PUSH1 0x0 DUP1 REVERT JUMPDEST PUSH1 0xA PUSH1 0x7 PUSH1 0x4 SLOAD PUSH2 0x2AE SWAP2 SWAP1 PUSH2 0xC60 JUMP JUMPDEST PUSH2 0x2B8 SWAP2 SWAP1 PUSH2 0xCD1 JUMP JUMPDEST DUP2 PUSH1 0x3 ADD SLOAD GT PUSH2 0x2C7 JUMPI PUSH1 0x0 DUP1 REVERT JUMPDEST DUP1 PUSH1 0x2 ADD PUSH1 0x0 SWAP1 SLOAD SWAP1 PUSH2 0x100 EXP SWAP1 DIV PUSH20 0xFFFFFFFFFFFFFFFFFFFFFFFFFFFFFFFFFFFFFFFF AND PUSH20 0xFFFFFFFFFFFFFFFFFFFFFFFFFFFFFFFFFFFFFFFF AND PUSH2 0x8FC DUP3 PUSH1 0x1 ADD SLOAD SWAP1 DUP2 ISZERO MUL SWAP1 PUSH1 0x40 MLOAD PUSH1 0x0 PUSH1 0x40 MLOAD DUP1 DUP4 SUB DUP2 DUP6 DUP9 DUP9 CALL SWAP4 POP POP POP POP ISZERO DUP1 ISZERO PUSH2 0x335 JUMPI RETURNDATASIZE PUSH1 0x0 DUP1 RETURNDATACOPY RETURNDATASIZE PUSH1 0x0 REVERT JUMPDEST POP PUSH1 0x1 DUP2 PUSH1 0x2 ADD PUSH1 0x14 PUSH2 0x100 EXP DUP2 SLOAD DUP2 PUSH1 0xFF MUL NOT AND SWAP1 DUP4 ISZERO ISZERO MUL OR SWAP1 SSTORE POP POP POP JUMP JUMPDEST PUSH1 0x3 PUSH1 0x20 MSTORE DUP1 PUSH1 0x0 MSTORE PUSH1 0x40 PUSH1 0x0 KECCAK256 PUSH1 0x0 SWAP2 POP SLOAD SWAP1 PUSH2 0x100 EXP SWAP1 DIV PUSH1 0xFF AND DUP2 JUMP JUMPDEST PUSH1 0x1 PUSH1 0x0 SWAP1 SLOAD SWAP1 PUSH2 0x100 EXP SWAP1 DIV PUSH20 0xFFFFFFFFFFFFFFFFFFFFFFFFFFFFFFFFFFFFFFFF AND DUP2 JUMP JUMPDEST PUSH1 0x0 DUP2 DUP2 SLOAD DUP2 LT PUSH2 0x3AD JUMPI PUSH1 0x0 DUP1 REVERT JUMPDEST SWAP1 PUSH1 0x0 MSTORE PUSH1 0x20 PUSH1 0x0 KECCAK256 SWAP1 PUSH1 0x5 MUL ADD PUSH1 0x0 SWAP2 POP SWAP1 POP DUP1 PUSH1 0x0 ADD DUP1 SLOAD PUSH2 0x3D0 SWAP1 PUSH2 0xD31 JUMP JUMPDEST DUP1 PUSH1 0x1F ADD PUSH1 0x20 DUP1 SWAP2 DIV MUL PUSH1 0x20 ADD PUSH1 0x40 MLOAD SWAP1 DUP2 ADD PUSH1 0x40 MSTORE DUP1 SWAP3 SWAP2 SWAP1 DUP2 DUP2 MSTORE PUSH1 0x20 ADD DUP3 DUP1 SLOAD PUSH2 0x3FC SWAP1 PUSH2 0xD31 JUMP JUMPDEST DUP1 ISZERO PUSH2 0x449 JUMPI DUP1 PUSH1 0x1F LT PUSH2 0x41E JUMPI PUSH2 0x100 DUP1 DUP4 SLOAD DIV MUL DUP4 MSTORE SWAP2 PUSH1 0x20 ADD SWAP2 PUSH2 0x449 JUMP JUMPDEST DUP3 ADD SWAP2 SWAP1 PUSH1 0x0 MSTORE PUSH1 0x20 PUSH1 0x0 KECCAK256 SWAP1 JUMPDEST DUP2 SLOAD DUP2 MSTORE SWAP1 PUSH1 0x1 ADD SWAP1 PUSH1 0x20 ADD DUP1 DUP4 GT PUSH2 0x42C JUMPI DUP3 SWAP1 SUB PUSH1 0x1F AND DUP3 ADD SWAP2 JUMPDEST POP POP POP POP POP SWAP1 DUP1 PUSH1 0x1 ADD SLOAD SWAP1 DUP1 PUSH1 0x2 ADD PUSH1 0x0 SWAP1 SLOAD SWAP1 PUSH2 0x100 EXP SWAP1 DIV PUSH20 0xFFFFFFFFFFFFFFFFFFFFFFFFFFFFFFFFFFFFFFFF AND SWAP1 DUP1 PUSH1 0x2 ADD PUSH1 0x14 SWAP1 SLOAD SWAP1 PUSH2 0x100 EXP SWAP1 DIV PUSH1 0xFF AND SWAP1 DUP1 PUSH1 0x3 ADD SLOAD SWAP1 POP DUP6 JUMP JUMPDEST PUSH1 0x4 SLOAD DUP2 JUMP JUMPDEST PUSH1 0x1 PUSH1 0x0 SWAP1 SLOAD SWAP1 PUSH2 0x100 EXP SWAP1 DIV PUSH20 0xFFFFFFFFFFFFFFFFFFFFFFFFFFFFFFFFFFFFFFFF AND PUSH20 0xFFFFFFFFFFFFFFFFFFFFFFFFFFFFFFFFFFFFFFFF AND CALLER PUSH20 0xFFFFFFFFFFFFFFFFFFFFFFFFFFFFFFFFFFFFFFFF AND EQ PUSH2 0x4F8 JUMPI PUSH1 0x0 DUP1 REVERT JUMPDEST PUSH1 0x0 DUP1 PUSH1 0x1 DUP2 PUSH1 0x1 DUP2 SLOAD ADD DUP1 DUP3 SSTORE DUP1 SWAP2 POP POP SUB SWAP1 PUSH1 0x0 MSTORE PUSH1 0x20 PUSH1 0x0 KECCAK256 SWAP1 PUSH1 0x5 MUL ADD SWAP1 POP DUP4 DUP2 PUSH1 0x0 ADD SWAP1 DUP2 PUSH2 0x52C SWAP2 SWAP1 PUSH2 0xF0E JUMP JUMPDEST POP DUP3 DUP2 PUSH1 0x1 ADD DUP2 SWAP1 SSTORE POP DUP2 DUP2 PUSH1 0x2 ADD PUSH1 0x0 PUSH2 0x100 EXP DUP2 SLOAD DUP2 PUSH20 0xFFFFFFFFFFFFFFFFFFFFFFFFFFFFFFFFFFFFFFFF MUL NOT AND SWAP1 DUP4 PUSH20 0xFFFFFFFFFFFFFFFFFFFFFFFFFFFFFFFFFFFFFFFF AND MUL OR SWAP1 SSTORE POP PUSH1 0x0 DUP2 PUSH1 0x2 ADD PUSH1 0x14 PUSH2 0x100 EXP DUP2 SLOAD DUP2 PUSH1 0xFF MUL NOT AND SWAP1 DUP4 ISZERO ISZERO MUL OR SWAP1 SSTORE POP PUSH1 0x0 DUP2 PUSH1 0x3 ADD DUP2 SWAP1 SSTORE POP POP POP POP POP JUMP JUMPDEST PUSH1 0x2 SLOAD DUP2 JUMP JUMPDEST PUSH1 0x2 SLOAD CALLVALUE LT ISZERO PUSH2 0x5BB JUMPI PUSH1 0x0 DUP1 REVERT JUMPDEST PUSH1 0x1 PUSH1 0x3 PUSH1 0x0 CALLER PUSH20 0xFFFFFFFFFFFFFFFFFFFFFFFFFFFFFFFFFFFFFFFF AND PUSH20 0xFFFFFFFFFFFFFFFFFFFFFFFFFFFFFFFFFFFFFFFF AND DUP2 MSTORE PUSH1 0x20 ADD SWAP1 DUP2 MSTORE PUSH1 0x20 ADD PUSH1 0x0 KECCAK256 PUSH1 0x0 PUSH2 0x100 EXP DUP2 SLOAD DUP2 PUSH1 0xFF MUL NOT AND SWAP1 DUP4 ISZERO ISZERO MUL OR SWAP1 SSTORE POP PUSH1 0x4 PUSH1 0x0 DUP2 SLOAD DUP1 SWAP3 SWAP2 SWAP1 PUSH2 0x626 SWAP1 PUSH2 0xFE0 JUMP JUMPDEST SWAP2 SWAP1 POP SSTORE POP JUMP JUMPDEST PUSH1 0x0 DUP1 DUP3 DUP2 SLOAD DUP2 LT PUSH2 0x642 JUMPI PUSH2 0x641 PUSH2 0xC02 JUMP JUMPDEST JUMPDEST SWAP1 PUSH1 0x0 MSTORE PUSH1 0x20 PUSH1 0x0 KECCAK256 SWAP1 PUSH1 0x5 MUL ADD SWAP1 POP PUSH1 0x3 PUSH1 0x0 CALLER PUSH20 0xFFFFFFFFFFFFFFFFFFFFFFFFFFFFFFFFFFFFFFFF AND PUSH20 0xFFFFFFFFFFFFFFFFFFFFFFFFFFFFFFFFFFFFFFFF AND DUP2 MSTORE PUSH1 0x20 ADD SWAP1 DUP2 MSTORE PUSH1 0x20 ADD PUSH1 0x0 KECCAK256 PUSH1 0x0 SWAP1 SLOAD SWAP1 PUSH2 0x100 EXP SWAP1 DIV PUSH1 0xFF AND PUSH2 0x6A8 JUMPI PUSH1 0x0 DUP1 REVERT JUMPDEST PUSH1 0x0 ISZERO ISZERO DUP2 PUSH1 0x2 ADD PUSH1 0x14 SWAP1 SLOAD SWAP1 PUSH2 0x100 EXP SWAP1 DIV PUSH1 0xFF AND ISZERO ISZERO EQ PUSH2 0x6CA JUMPI PUSH1 0x0 DUP1 REVERT JUMPDEST DUP1 PUSH1 0x4 ADD PUSH1 0x0 CALLER PUSH20 0xFFFFFFFFFFFFFFFFFFFFFFFFFFFFFFFFFFFFFFFF AND PUSH20 0xFFFFFFFFFFFFFFFFFFFFFFFFFFFFFFFFFFFFFFFF AND DUP2 MSTORE PUSH1 0x20 ADD SWAP1 DUP2 MSTORE PUSH1 0x20 ADD PUSH1 0x0 KECCAK256 PUSH1 0x0 SWAP1 SLOAD SWAP1 PUSH2 0x100 EXP SWAP1 DIV PUSH1 0xFF AND ISZERO PUSH2 0x723 JUMPI PUSH1 0x0 DUP1 REVERT JUMPDEST DUP1 PUSH1 0x3 ADD PUSH1 0x0 DUP2 SLOAD DUP1 SWAP3 SWAP2 SWAP1 PUSH2 0x738 SWAP1 PUSH2 0xFE0 JUMP JUMPDEST SWAP2 SWAP1 POP SSTORE POP PUSH1 0x1 DUP2 PUSH1 0x4 ADD PUSH1 0x0 CALLER PUSH20 0xFFFFFFFFFFFFFFFFFFFFFFFFFFFFFFFFFFFFFFFF AND PUSH20 0xFFFFFFFFFFFFFFFFFFFFFFFFFFFFFFFFFFFFFFFF AND DUP2 MSTORE PUSH1 0x20 ADD SWAP1 DUP2 MSTORE PUSH1 0x20 ADD PUSH1 0x0 KECCAK256 PUSH1 0x0 PUSH2 0x100 EXP DUP2 SLOAD DUP2 PUSH1 0xFF MUL NOT AND SWAP1 DUP4 ISZERO ISZERO MUL OR SWAP1 SSTORE POP POP POP JUMP JUMPDEST PUSH1 0x0 PUSH1 0x40 MLOAD SWAP1 POP SWAP1 JUMP JUMPDEST PUSH1 0x0 DUP1 REVERT JUMPDEST PUSH1 0x0 DUP1 REVERT JUMPDEST PUSH1 0x0 DUP2 SWAP1 POP SWAP2 SWAP1 POP JUMP JUMPDEST PUSH2 0x7C2 DUP2 PUSH2 0x7AF JUMP JUMPDEST DUP2 EQ PUSH2 0x7CD JUMPI PUSH1 0x0 DUP1 REVERT JUMPDEST POP JUMP JUMPDEST PUSH1 0x0 DUP2 CALLDATALOAD SWAP1 POP PUSH2 0x7DF DUP2 PUSH2 0x7B9 JUMP JUMPDEST SWAP3 SWAP2 POP POP JUMP JUMPDEST PUSH1 0x0 PUSH1 0x20 DUP3 DUP5 SUB SLT ISZERO PUSH2 0x7FB JUMPI PUSH2 0x7FA PUSH2 0x7A5 JUMP JUMPDEST JUMPDEST PUSH1 0x0 PUSH2 0x809 DUP5 DUP3 DUP6 ADD PUSH2 0x7D0 JUMP JUMPDEST SWAP2 POP POP SWAP3 SWAP2 POP POP JUMP JUMPDEST PUSH1 0x0 PUSH20 0xFFFFFFFFFFFFFFFFFFFFFFFFFFFFFFFFFFFFFFFF DUP3 AND SWAP1 POP SWAP2 SWAP1 POP JUMP JUMPDEST PUSH1 0x0 PUSH2 0x83D DUP3 PUSH2 0x812 JUMP JUMPDEST SWAP1 POP SWAP2 SWAP1 POP JUMP JUMPDEST PUSH2 0x84D DUP2 PUSH2 0x832 JUMP JUMPDEST DUP2 EQ PUSH2 0x858 JUMPI PUSH1 0x0 DUP1 REVERT JUMPDEST POP JUMP JUMPDEST PUSH1 0x0 DUP2 CALLDATALOAD SWAP1 POP PUSH2 0x86A DUP2 PUSH2 0x844 JUMP JUMPDEST SWAP3 SWAP2 POP POP JUMP JUMPDEST PUSH1 0x0 PUSH1 0x20 DUP3 DUP5 SUB SLT ISZERO PUSH2 0x886 JUMPI PUSH2 0x885 PUSH2 0x7A5 JUMP JUMPDEST JUMPDEST PUSH1 0x0 PUSH2 0x894 DUP5 DUP3 DUP6 ADD PUSH2 0x85B JUMP JUMPDEST SWAP2 POP POP SWAP3 SWAP2 POP POP JUMP JUMPDEST PUSH1 0x0 DUP2 ISZERO ISZERO SWAP1 POP SWAP2 SWAP1 POP JUMP JUMPDEST PUSH2 0x8B2 DUP2 PUSH2 0x89D JUMP JUMPDEST DUP3 MSTORE POP POP JUMP JUMPDEST PUSH1 0x0 PUSH1 0x20 DUP3 ADD SWAP1 POP PUSH2 0x8CD PUSH1 0x0 DUP4 ADD DUP5 PUSH2 0x8A9 JUMP JUMPDEST SWAP3 SWAP2 POP POP JUMP JUMPDEST PUSH2 0x8DC DUP2 PUSH2 0x832 JUMP JUMPDEST DUP3 MSTORE POP POP JUMP JUMPDEST PUSH1 0x0 PUSH1 0x20 DUP3 ADD SWAP1 POP PUSH2 0x8F7 PUSH1 0x0 DUP4 ADD DUP5 PUSH2 0x8D3 JUMP JUMPDEST SWAP3 SWAP2 POP POP JUMP JUMPDEST PUSH1 0x0 DUP2 MLOAD SWAP1 POP SWAP2 SWAP1 POP JUMP JUMPDEST PUSH1 0x0 DUP3 DUP3 MSTORE PUSH1 0x20 DUP3 ADD SWAP1 POP SWAP3 SWAP2 POP POP JUMP JUMPDEST PUSH1 0x0 JUMPDEST DUP4 DUP2 LT ISZERO PUSH2 0x937 JUMPI DUP1 DUP3 ADD MLOAD DUP2 DUP5 ADD MSTORE PUSH1 0x20 DUP2 ADD SWAP1 POP PUSH2 0x91C JUMP JUMPDEST PUSH1 0x0 DUP5 DUP5 ADD MSTORE POP POP POP POP JUMP JUMPDEST PUSH1 0x0 PUSH1 0x1F NOT PUSH1 0x1F DUP4 ADD AND SWAP1 POP SWAP2 SWAP1 POP JUMP JUMPDEST PUSH1 0x0 PUSH2 0x95F DUP3 PUSH2 0x8FD JUMP JUMPDEST PUSH2 0x969 DUP2 DUP6 PUSH2 0x908 JUMP JUMPDEST SWAP4 POP PUSH2 0x979 DUP2 DUP6 PUSH1 0x20 DUP7 ADD PUSH2 0x919 JUMP JUMPDEST PUSH2 0x982 DUP2 PUSH2 0x943 JUMP JUMPDEST DUP5 ADD SWAP2 POP POP SWAP3 SWAP2 POP POP JUMP JUMPDEST PUSH2 0x996 DUP2 PUSH2 0x7AF JUMP JUMPDEST DUP3 MSTORE POP POP JUMP JUMPDEST PUSH1 0x0 PUSH2 0x9A7 DUP3 PUSH2 0x812 JUMP JUMPDEST SWAP1 POP SWAP2 SWAP1 POP JUMP JUMPDEST PUSH2 0x9B7 DUP2 PUSH2 0x99C JUMP JUMPDEST DUP3 MSTORE POP POP JUMP JUMPDEST PUSH1 0x0 PUSH1 0xA0 DUP3 ADD SWAP1 POP DUP2 DUP2 SUB PUSH1 0x0 DUP4 ADD MSTORE PUSH2 0x9D7 DUP2 DUP9 PUSH2 0x954 JUMP JUMPDEST SWAP1 POP PUSH2 0x9E6 PUSH1 0x20 DUP4 ADD DUP8 PUSH2 0x98D JUMP JUMPDEST PUSH2 0x9F3 PUSH1 0x40 DUP4 ADD DUP7 PUSH2 0x9AE JUMP JUMPDEST PUSH2 0xA00 PUSH1 0x60 DUP4 ADD DUP6 PUSH2 0x8A9 JUMP JUMPDEST PUSH2 0xA0D PUSH1 0x80 DUP4 ADD DUP5 PUSH2 0x98D JUMP JUMPDEST SWAP7 SWAP6 POP POP POP POP POP POP JUMP JUMPDEST PUSH1 0x0 PUSH1 0x20 DUP3 ADD SWAP1 POP PUSH2 0xA2C PUSH1 0x0 DUP4 ADD DUP5 PUSH2 0x98D JUMP JUMPDEST SWAP3 SWAP2 POP POP JUMP JUMPDEST PUSH1 0x0 DUP1 REVERT JUMPDEST PUSH1 0x0 DUP1 REVERT JUMPDEST PUSH32 0x4E487B7100000000000000000000000000000000000000000000000000000000 PUSH1 0x0 MSTORE PUSH1 0x41 PUSH1 0x4 MSTORE PUSH1 0x24 PUSH1 0x0 REVERT JUMPDEST PUSH2 0xA74 DUP3 PUSH2 0x943 JUMP JUMPDEST DUP2 ADD DUP2 DUP2 LT PUSH8 0xFFFFFFFFFFFFFFFF DUP3 GT OR ISZERO PUSH2 0xA93 JUMPI PUSH2 0xA92 PUSH2 0xA3C JUMP JUMPDEST JUMPDEST DUP1 PUSH1 0x40 MSTORE POP POP POP JUMP JUMPDEST PUSH1 0x0 PUSH2 0xAA6 PUSH2 0x79B JUMP JUMPDEST SWAP1 POP PUSH2 0xAB2 DUP3 DUP3 PUSH2 0xA6B JUMP JUMPDEST SWAP2 SWAP1 POP JUMP JUMPDEST PUSH1 0x0 PUSH8 0xFFFFFFFFFFFFFFFF DUP3 GT ISZERO PUSH2 0xAD2 JUMPI PUSH2 0xAD1 PUSH2 0xA3C JUMP JUMPDEST JUMPDEST PUSH2 0xADB DUP3 PUSH2 0x943 JUMP JUMPDEST SWAP1 POP PUSH1 0x20 DUP2 ADD SWAP1 POP SWAP2 SWAP1 POP JUMP JUMPDEST DUP3 DUP2 DUP4 CALLDATACOPY PUSH1 0x0 DUP4 DUP4 ADD MSTORE POP POP POP JUMP JUMPDEST PUSH1 0x0 PUSH2 0xB0A PUSH2 0xB05 DUP5 PUSH2 0xAB7 JUMP JUMPDEST PUSH2 0xA9C JUMP JUMPDEST SWAP1 POP DUP3 DUP2 MSTORE PUSH1 0x20 DUP2 ADD DUP5 DUP5 DUP5 ADD GT ISZERO PUSH2 0xB26 JUMPI PUSH2 0xB25 PUSH2 0xA37 JUMP JUMPDEST JUMPDEST PUSH2 0xB31 DUP5 DUP3 DUP6 PUSH2 0xAE8 JUMP JUMPDEST POP SWAP4 SWAP3 POP POP POP JUMP JUMPDEST PUSH1 0x0 DUP3 PUSH1 0x1F DUP4 ADD SLT PUSH2 0xB4E JUMPI PUSH2 0xB4D PUSH2 0xA32 JUMP JUMPDEST JUMPDEST DUP2 CALLDATALOAD PUSH2 0xB5E DUP5 DUP3 PUSH1 0x20 DUP7 ADD PUSH2 0xAF7 JUMP JUMPDEST SWAP2 POP POP SWAP3 SWAP2 POP POP JUMP JUMPDEST PUSH2 0xB70 DUP2 PUSH2 0x99C JUMP JUMPDEST DUP2 EQ PUSH2 0xB7B JUMPI PUSH1 0x0 DUP1 REVERT JUMPDEST POP JUMP JUMPDEST PUSH1 0x0 DUP2 CALLDATALOAD SWAP1 POP PUSH2 0xB8D DUP2 PUSH2 0xB67 JUMP JUMPDEST SWAP3 SWAP2 POP POP JUMP JUMPDEST PUSH1 0x0 DUP1 PUSH1 0x0 PUSH1 0x60 DUP5 DUP7 SUB SLT ISZERO PUSH2 0xBAC JUMPI PUSH2 0xBAB PUSH2 0x7A5 JUMP JUMPDEST JUMPDEST PUSH1 0x0 DUP5 ADD CALLDATALOAD PUSH8 0xFFFFFFFFFFFFFFFF DUP2 GT ISZERO PUSH2 0xBCA JUMPI PUSH2 0xBC9 PUSH2 0x7AA JUMP JUMPDEST JUMPDEST PUSH2 0xBD6 DUP7 DUP3 DUP8 ADD PUSH2 0xB39 JUMP JUMPDEST SWAP4 POP POP PUSH1 0x20 PUSH2 0xBE7 DUP7 DUP3 DUP8 ADD PUSH2 0x7D0 JUMP JUMPDEST SWAP3 POP POP PUSH1 0x40 PUSH2 0xBF8 DUP7 DUP3 DUP8 ADD PUSH2 0xB7E JUMP JUMPDEST SWAP2 POP POP SWAP3 POP SWAP3 POP SWAP3 JUMP JUMPDEST PUSH32 0x4E487B7100000000000000000000000000000000000000000000000000000000 PUSH1 0x0 MSTORE PUSH1 0x32 PUSH1 0x4 MSTORE PUSH1 0x24 PUSH1 0x0 REVERT JUMPDEST PUSH32 0x4E487B7100000000000000000000000000000000000000000000000000000000 PUSH1 0x0 MSTORE PUSH1 0x11 PUSH1 0x4 MSTORE PUSH1 0x24 PUSH1 0x0 REVERT JUMPDEST PUSH1 0x0 PUSH2 0xC6B DUP3 PUSH2 0x7AF JUMP JUMPDEST SWAP2 POP PUSH2 0xC76 DUP4 PUSH2 0x7AF JUMP JUMPDEST SWAP3 POP DUP3 DUP3 MUL PUSH2 0xC84 DUP2 PUSH2 0x7AF JUMP JUMPDEST SWAP2 POP DUP3 DUP3 DIV DUP5 EQ DUP4 ISZERO OR PUSH2 0xC9B JUMPI PUSH2 0xC9A PUSH2 0xC31 JUMP JUMPDEST JUMPDEST POP SWAP3 SWAP2 POP POP JUMP JUMPDEST PUSH32 0x4E487B7100000000000000000000000000000000000000000000000000000000 PUSH1 0x0 MSTORE PUSH1 0x12 PUSH1 0x4 MSTORE PUSH1 0x24 PUSH1 0x0 REVERT JUMPDEST PUSH1 0x0 PUSH2 0xCDC DUP3 PUSH2 0x7AF JUMP JUMPDEST SWAP2 POP PUSH2 0xCE7 DUP4 PUSH2 0x7AF JUMP JUMPDEST SWAP3 POP DUP3 PUSH2 0xCF7 JUMPI PUSH2 0xCF6 PUSH2 0xCA2 JUMP JUMPDEST JUMPDEST DUP3 DUP3 DIV SWAP1 POP SWAP3 SWAP2 POP POP JUMP JUMPDEST PUSH32 0x4E487B7100000000000000000000000000000000000000000000000000000000 PUSH1 0x0 MSTORE PUSH1 0x22 PUSH1 0x4 MSTORE PUSH1 0x24 PUSH1 0x0 REVERT JUMPDEST PUSH1 0x0 PUSH1 0x2 DUP3 DIV SWAP1 POP PUSH1 0x1 DUP3 AND DUP1 PUSH2 0xD49 JUMPI PUSH1 0x7F DUP3 AND SWAP2 POP JUMPDEST PUSH1 0x20 DUP3 LT DUP2 SUB PUSH2 0xD5C JUMPI PUSH2 0xD5B PUSH2 0xD02 JUMP JUMPDEST JUMPDEST POP SWAP2 SWAP1 POP JUMP JUMPDEST PUSH1 0x0 DUP2 SWAP1 POP DUP2 PUSH1 0x0 MSTORE PUSH1 0x20 PUSH1 0x0 KECCAK256 SWAP1 POP SWAP2 SWAP1 POP JUMP JUMPDEST PUSH1 0x0 PUSH1 0x20 PUSH1 0x1F DUP4 ADD DIV SWAP1 POP SWAP2 SWAP1 POP JUMP JUMPDEST PUSH1 0x0 DUP3 DUP3 SHL SWAP1 POP SWAP3 SWAP2 POP POP JUMP JUMPDEST PUSH1 0x0 PUSH1 0x8 DUP4 MUL PUSH2 0xDC4 PUSH32 0xFFFFFFFFFFFFFFFFFFFFFFFFFFFFFFFFFFFFFFFFFFFFFFFFFFFFFFFFFFFFFFFF DUP3 PUSH2 0xD87 JUMP JUMPDEST PUSH2 0xDCE DUP7 DUP4 PUSH2 0xD87 JUMP JUMPDEST SWAP6 POP DUP1 NOT DUP5 AND SWAP4 POP DUP1 DUP7 AND DUP5 OR SWAP3 POP POP POP SWAP4 SWAP3 POP POP POP JUMP JUMPDEST PUSH1 0x0 DUP2 SWAP1 POP SWAP2 SWAP1 POP JUMP JUMPDEST PUSH1 0x0 PUSH2 0xE0B PUSH2 0xE06 PUSH2 0xE01 DUP5 PUSH2 0x7AF JUMP JUMPDEST PUSH2 0xDE6 JUMP JUMPDEST PUSH2 0x7AF JUMP JUMPDEST SWAP1 POP SWAP2 SWAP1 POP JUMP JUMPDEST PUSH1 0x0 DUP2 SWAP1 POP SWAP2 SWAP1 POP JUMP JUMPDEST PUSH2 0xE25 DUP4 PUSH2 0xDF0 JUMP JUMPDEST PUSH2 0xE39 PUSH2 0xE31 DUP3 PUSH2 0xE12 JUMP JUMPDEST DUP5 DUP5 SLOAD PUSH2 0xD94 JUMP JUMPDEST DUP3 SSTORE POP POP POP POP JUMP JUMPDEST PUSH1 0x0 SWAP1 JUMP JUMPDEST PUSH2 0xE4E PUSH2 0xE41 JUMP JUMPDEST PUSH2 0xE59 DUP2 DUP5 DUP5 PUSH2 0xE1C JUMP JUMPDEST POP POP POP JUMP JUMPDEST JUMPDEST DUP2 DUP2 LT ISZERO PUSH2 0xE7D JUMPI PUSH2 0xE72 PUSH1 0x0 DUP3 PUSH2 0xE46 JUMP JUMPDEST PUSH1 0x1 DUP2 ADD SWAP1 POP PUSH2 0xE5F JUMP JUMPDEST POP POP JUMP JUMPDEST PUSH1 0x1F DUP3 GT ISZERO PUSH2 0xEC2 JUMPI PUSH2 0xE93 DUP2 PUSH2 0xD62 JUMP JUMPDEST PUSH2 0xE9C DUP5 PUSH2 0xD77 JUMP JUMPDEST DUP2 ADD PUSH1 0x20 DUP6 LT ISZERO PUSH2 0xEAB JUMPI DUP2 SWAP1 POP JUMPDEST PUSH2 0xEBF PUSH2 0xEB7 DUP6 PUSH2 0xD77 JUMP JUMPDEST DUP4 ADD DUP3 PUSH2 0xE5E JUMP JUMPDEST POP POP JUMPDEST POP POP POP JUMP JUMPDEST PUSH1 0x0 DUP3 DUP3 SHR SWAP1 POP SWAP3 SWAP2 POP POP JUMP JUMPDEST PUSH1 0x0 PUSH2 0xEE5 PUSH1 0x0 NOT DUP5 PUSH1 0x8 MUL PUSH2 0xEC7 JUMP JUMPDEST NOT DUP1 DUP4 AND SWAP2 POP POP SWAP3 SWAP2 POP POP JUMP JUMPDEST PUSH1 0x0 PUSH2 0xEFE DUP4 DUP4 PUSH2 0xED4 JUMP JUMPDEST SWAP2 POP DUP3 PUSH1 0x2 MUL DUP3 OR SWAP1 POP SWAP3 SWAP2 POP POP JUMP JUMPDEST PUSH2 0xF17 DUP3 PUSH2 0x8FD JUMP JUMPDEST PUSH8 0xFFFFFFFFFFFFFFFF DUP2 GT ISZERO PUSH2 0xF30 JUMPI PUSH2 0xF2F PUSH2 0xA3C JUMP JUMPDEST JUMPDEST PUSH2 0xF3A DUP3 SLOAD PUSH2 0xD31 JUMP JUMPDEST PUSH2 0xF45 DUP3 DUP3 DUP6 PUSH2 0xE81 JUMP JUMPDEST PUSH1 0x0 PUSH1 0x20 SWAP1 POP PUSH1 0x1F DUP4 GT PUSH1 0x1 DUP2 EQ PUSH2 0xF78 JUMPI PUSH1 0x0 DUP5 ISZERO PUSH2 0xF66 JUMPI DUP3 DUP8 ADD MLOAD SWAP1 POP JUMPDEST PUSH2 0xF70 DUP6 DUP3 PUSH2 0xEF2 JUMP JUMPDEST DUP7 SSTORE POP PUSH2 0xFD8 JUMP JUMPDEST PUSH1 0x1F NOT DUP5 AND PUSH2 0xF86 DUP7 PUSH2 0xD62 JUMP JUMPDEST PUSH1 0x0 JUMPDEST DUP3 DUP2 LT ISZERO PUSH2 0xFAE JUMPI DUP5 DUP10 ADD MLOAD DUP3 SSTORE PUSH1 0x1 DUP3 ADD SWAP2 POP PUSH1 0x20 DUP6 ADD SWAP5 POP PUSH1 0x20 DUP2 ADD SWAP1 POP PUSH2 0xF89 JUMP JUMPDEST DUP7 DUP4 LT ISZERO PUSH2 0xFCB JUMPI DUP5 DUP10 ADD MLOAD PUSH2 0xFC7 PUSH1 0x1F DUP10 AND DUP3 PUSH2 0xED4 JUMP JUMPDEST DUP4 SSTORE POP JUMPDEST PUSH1 0x1 PUSH1 0x2 DUP9 MUL ADD DUP9 SSTORE POP POP POP JUMPDEST POP POP POP POP POP POP JUMP JUMPDEST PUSH1 0x0 PUSH2 0xFEB DUP3 PUSH2 0x7AF JUMP JUMPDEST SWAP2 POP PUSH32 0xFFFFFFFFFFFFFFFFFFFFFFFFFFFFFFFFFFFFFFFFFFFFFFFFFFFFFFFFFFFFFFFF DUP3 SUB PUSH2 0x101D JUMPI PUSH2 0x101C PUSH2 0xC31 JUMP JUMPDEST JUMPDEST PUSH1 0x1 DUP3 ADD SWAP1 POP SWAP2 SWAP1 POP JUMP INVALID LOG2 PUSH5 0x6970667358 0x22 SLT KECCAK256 SHL BLOCKHASH DUP11 CREATE2 0xD9 PC PUSH26 0xAEABC94925543B88FA12D0549F57DA1C643375256395C5A86564 PUSH20 0x6F6C634300081100330000000000000000000000 "},"gasEstimates":{"creation":{"codeDepositCost":"838000","executionCost":"infinite","totalCost":"infinite"},"external":{"approveRequest(uint256)":"infinite","approvers(address)":"2868","approversCount()":"2429","contribute()":"51024","createRequest(string,uint256,address)":"infinite","finalizeRequest(uint256)":"infinite","manager()":"2559","minimumContribution()":"2473","requests(uint256)":"infinite"}},"methodIdentifiers":{"approveRequest(uint256)":"d7d1bbdb","approvers(address)":"0a144391","approversCount()":"82fde093","contribute()":"d7bb99ba","createRequest(string,uint256,address)":"8a9cfd55","finalizeRequest(uint256)":"03441006","manager()":"481c6a75","minimumContribution()":"937e09b1","requests(uint256)":"81d12c58"}},"storageLayout":{"storage":[{"astId":58,"contract":"Campaign.sol:Campaign","label":"requests","offset":0,"slot":"0","type":"t_array(t_struct(Request)54_storage)dyn_storage"},{"astId":60,"contract":"Campaign.sol:Campaign","label":"manager","offset":0,"slot":"1","type":"t_address"},{"astId":62,"contract":"Campaign.sol:Campaign","label":"minimumContribution","offset":0,"slot":"2","type":"t_uint256"},{"astId":66,"contract":"Campaign.sol:Campaign","label":"approvers","offset":0,"slot":"3","type":"t_mapping(t_address,t_bool)"},{"astId":68,"contract":"Campaign.sol:Campaign","label":"approversCount","offset":0,"slot":"4","type":"t_uint256"}],"types":{"t_address":{"encoding":"inplace","label":"address","numberOfBytes":"20"},"t_address_payable":{"encoding":"inplace","label":"address payable","numberOfBytes":"20"},"t_array(t_struct(Request)54_storage)dyn_storage":{"base":"t_struct(Request)54_storage","encoding":"dynamic_array","label":"struct Campaign.Request[]","numberOfBytes":"32"},"t_bool":{"encoding":"inplace","label":"bool","numberOfBytes":"1"},"t_mapping(t_address,t_bool)":{"encoding":"mapping","key":"t_address","label":"mapping(address => bool)","numberOfBytes":"32","value":"t_bool"},"t_string_storage":{"encoding":"bytes","label":"string","numberOfBytes":"32"},"t_struct(Request)54_storage":{"encoding":"inplace","label":"struct Campaign.Request","members":[{"astId":41,"contract":"Campaign.sol:Campaign","label":"description","offset":0,"slot":"0","type":"t_string_storage"},{"astId":43,"contract":"Campaign.sol:Campaign","label":"value","offset":0,"slot":"1","type":"t_uint256"},{"astId":45,"contract":"Campaign.sol:Campaign","label":"recipient","offset":0,"slot":"2","type":"t_address_payable"},{"astId":47,"contract":"Campaign.sol:Campaign","label":"complete","offset":20,"slot":"2","type":"t_bool"},{"astId":49,"contract":"Campaign.sol:Campaign","label":"approvalCount","offset":0,"slot":"3","type":"t_uint256"},{"astId":53,"contract":"Campaign.sol:Campaign","label":"approvals","offset":0,"slot":"4","type":"t_mapping(t_address,t_bool)"}],"numberOfBytes":"160"},"t_uint256":{"encoding":"inplace","label":"uint256","numberOfBytes":"32"}}},"userdoc":{"kind":"user","methods":{},"version":1}}